:020000022000DC
:1060000000FD0020D5660200FD660200FF6602006A
:10601000016702000367020005670200000000003C
:106020000000000000000000000000000767020000
:1060300009670200000000000B6702000D67020004
:106040000F6702000F6702000F6702000F67020070
:106050000F6702000F670200197F02000F6702003E
:106060000F6702000F6702006D5503000F67020003
:106070000F6702000F6702000F6702000F67020040
:106080000F6702007967020099D202000F670200D1
:10609000196802000F670200517B02000F670200BF
:1060A0000F6702000F6702000F6702000F67020010
:1060B0000F6702000F6702000000000000000000F0
:1060C0000F6702000F6702000F6702000F670200F0
:1060D0000F6702000F6702000F6702000000000058
:1060E00000000000000000000000000000000000B0
:1060F00000000000000000000000000000000000A0
:10610000000000000000000000000000000000008F
:10611000000000000000000000000000000000007F
:10612000000000000000000000000000000000006F
:10613000000000000000000000000000000000005F
:10614000000000000000000000000000000000004F
:10615000000000000000000000000000000000003F
:10616000000000000000000000000000000000002F
:10617000000000000000000000000000000000001F
:10618000000000000000000000000000000000000F
:1061900000000000000000000000000000000000FF
:1061A00000000000000000000000000000000000EF
:1061B00000000000000000000000000000000000DF
:1061C00000000000000000000000000000000000CF
:1061D00000000000000000000000000000000000BF
:1061E00000000000000000000000000000000000AF
:1061F000000000000000000000000000000000009F
:1062000010B5054C237833B9044B13B10448AFF3F0
:1062100000800123237010BDE02E0020000000004C
:10622000C00B04000C4B43B10C480D4910B5AFF343
:1062300000800C48036823B910BD0A48036833B9CD
:106240007047094B002BF7D0BDE810401847064BAC
:10625000002BF5D0184700BF00000000C00B040061
:10626000E42E0020D82E002000000000154B002B4B
:1062700008BF134B9D46A3F5803A00218B460F467D
:106280001348144A121A19F007FE0F4B002B00D0C6
:1062900098470E4B002B00D09847002000210400A7
:1062A0000D000D48002802D00C48AFF3008019F013
:1062B000A5FD2000290000F007F919F08BFD00BFB3
:1062C0000000080000FD00200000000000000000A9
:1062D000E02E0020285F00200000000000000000E9
:1062E00041DF704708B50449002001F019FC1A206D
:1062F000BDE8084001F074BD7804040010B50A46FA
:106300000C460020044901F00BFC21461A2001F044
:1063100073FD204610BD00BF9004040000B50E4977
:1063200083B0002001F0FCFB01A80DF07DF9BDF861
:1063300004200A49002001F0F3FB00214FF0E05057
:1063400001F066FD0422C8214FF0E05001F06AFD23
:1063500003B05DF804FB00BFA8040400C4040400FB
:1063600008B503781C2B00D008BD0749002001F0B8
:10637000D7FB0322C8214FF0E05001F053FDBDE8E8
:1063800008400AF02FB800BFBC03040010B50F4C42
:106390000F49002001F0C4FB0E4A0F4B62602046FB
:1063A0000021A36019F0D6FC50B920880BF058FBEF
:1063B00000B910BD094AA121BDE8104000F0B8B9EC
:1063C000064AA02100F0B4F9EFE700BF002F00203B
:1063D0004C040400E5620200FD6202006C0404004B
:1063E00038B5024604461649002001F099FB94B1E5
:1063F000032C0FD109F0ECFF1249002001F090FBB3
:106400002246C8214FF0E05001F00CFDBDE83840B5
:1064100009F0E8BF38BD1A2001F0E2FC80F001006D
:10642000C5B20949204601F07BFB29461A2001F03C
:10643000E3FC29460548BDE8384019F0ADBC00BF73
:1064400098030400BC030400AC030400002F0020E8
:1064500038B5A0F13004042C00D938BD22461649C5
:10646000002001F05DFB94B1032C0FD109F0B0FFC7
:106470001249002001F054FB2246C8214FF0E050A1
:1064800001F0D0FCBDE8384009F0ACBF38BD1A209F
:1064900001F0A6FC80F00100C5B20949204601F0D8
:1064A0003FFB29461A2001F0A7FC29460548BDE814
:1064B000384019F071BC00BF98030400BC0304000D
:1064C000AC030400002F0020F0B5714991B000200A
:1064D00001F026FB6F49002001F022FB00F08CFB4D
:1064E000002840F0AF8001F0CDFC6B4801F0F0FCDB
:1064F000002840F0B3806948019001F037FB002884
:1065000040F0B78010A9664B41F8383D03AC2046F7
:10651000042201F029FD002840F0B58007AE2422B6
:106520000021304619F0B8FC012707235D4D5E4A73
:106530005E490A9430468DF81C708DF81F308DF836
:1065400024300B950F9209F0C7FE002840F096808A
:10655000EFF3108072B6564CA568002D5CD1554BF8
:1065600055490122A260D3F880200A402260C3F876
:106570008010D3F8842062604FF0FF32C3F884208B
:1065800000B962B664214D4801F0CEFB09F0E2FE8D
:10659000002852D1454B1B78002B3FD001F030FD35
:1065A00000214FF0E05001F033FC0222C8214FF0EF
:1065B000E05001F037FCA3685BB155B9EFF31083ED
:1065C00072B63C4A2168116061685160A56003B9E8
:1065D00062B607F0B7F93A493A4E3B4D002001F058
:1065E0009FFA01E0FFF77CFE07F0ACF90028F9D034
:1065F0003146002001F094FA1A2001F0F1FB044624
:1066000001461A2001F0F8FB2146284619F0C4FB88
:10661000002007F09DF9E5E70125B1E72B4B93E852
:10662000070086E80700304601F02CFB0028B5D0B3
:10663000274AD42100F07CF8B0E7254AC92100F0B0
:1066400077F8A7E7224ABA2100F072F801F01AFCA5
:10665000114801F03DFC00283FF44DAF1C4ABE211B
:1066600000F066F80D48019001F080FA00283FF430
:1066700049AF174AC22100F05BF843E7144AB22140
:1066800000F056F864E7124AA92100F051F845E7F6
:10669000D8030400F0030400E163020001000007D6
:1066A0000059FFFF616302008D630200FC2E002091
:1066B0007C5E002000E100E0FC06FFBD51640200AA
:1066C0002004040034040400002F00208C03040084
:1066D0006C0404000649074A074B9B1A03DD043B80
:1066E000C858D050FBDC00F0BDFBFFF7BFFD000039
:1066F000CC0B0400A02D0020E02E0020FEE7FEE7DA
:10670000FEE7FEE7FEE7FEE7FEE7FEE7FEE7FEE761
:1067100000B585B000230390194601AA44F2010098
:106720000193029300F012F805B05DF804FB00BF7E
:1067300000B583B002900091019244F201007146CD
:106740006A4600F003F803B000BD00BF4FF0A0435D
:106750004FF0E052C3F81825C3F80C25EFF310836F
:1067600072B6044A13781BB130BF1378002BFBD1EB
:10677000704700BFA02D0020F8B5204A204B00250F
:10678000C2F84051C2F84451C2F84851C2F84C51C5
:10679000C2F80051C2F804511B6813B31949D2F86A
:1067A00004450A68A41A1A6824F07F44A2422F46BE
:1067B00009D8197CDE69A41A154499B91EB133466B
:1067C0001A68A242F5D91049104A0B7812789A42F9
:1067D0000DD00F490F4A41F823504FF48013C2F8EF
:1067E0000031F8BD1F745A6998699047E6E7531C59
:1067F000DBB2022B08BF00230B70EAE70010014058
:106800002C300020283000202530002024300020AB
:106810001C30002000E100E02DE9F04FB74AB849F4
:1068200013780978994285B033D00133DBB2022B5B
:1068300008BF0023B3481370B34A0768DFF8E0824B
:1068400052F82320D8F80010BB18002423F07F430F
:10685000036025462046A646A9B10B68934200F284
:106860007D81CC68C1F800E0D21A1844CB6934B1FC
:106870003E1826F07F46CD618C604E600D4619466D
:1068800001240029E9D1002C40F0A5814FF0010B33
:1068900005E0DFF88C820025D8F80010AB469B4B52
:1068A0009B4FDFF8809243F0010300930E464FF0B8
:1068B000000A002D2DD0D5F804E0D5F808C02C46EC
:1068C000ED69904B93481B68AEEB030222F07F42C8
:1068D000824255D802EB0C03236000220120626043
:1068E000A260E2612074002E6BD03068834261D9CF
:1068F000B64603E0106898424CD29646DEF81C205B
:106900001B1A002AF6D12360E261CEF81C40002D4C
:10691000D1D197F801C097F800E0F44571D07346E3
:1069200003EB43030EF10100BA7807EBC3035FFAF0
:1069300080FE7245187987F800E004BF4FF0000E22
:1069400087F800E002289A684CD003283DD001283F
:10695000E3D1107C0028E0D1D3F80CE0C2F804E0C9
:10696000D3F810C0C2F808C014465A69E26099F81A
:1069700000209B69A361002AA3D060608646A0E73F
:10698000A3EB0E0323F07F4363450AD2ACEB030372
:106990002360A2E7C01A10602360E261CEF81C40B9
:1069A000B5E70023012223606360A360E3612274E2
:1069B0003EB13068C8F80040C31A3360E66126462D
:1069C00077E7C8F80040264673E7002EA5D00022DE
:1069D00000E01E46F3693274002BFAD1C8F800308B
:1069E0001E4696E74EB1B242344603D1BDE09A420C
:1069F00060D01C46E369002BF9D100231374F445E1
:106A00008DD1BAF1000F02D18E4200F09D80002E90
:106A100000F0C5803B4B404A1C68D2F80475DFF893
:106A20000881D6F800A098F800103B1B23F07F43A4
:106A3000DD1CA9B93949354B4FF48030C2F8440305
:106A40000126C2F804034FF40030C1F8800143F07E
:106A50000103086016604FF43C60984788F80060B6
:106A6000AA452CBF04EB0A0363192B4923F07F438B
:106A7000C1F84035D1F80425D21BDB1B22F07F4240
:106A800023F07F4303329A420ED9204BD1F80425DC
:106A9000C1F8402543F001034FF43C6098471F4B79
:106AA0004FF40032C3F80021002389F8003005B00C
:106AB000BDE8F08FA24239D0D2F81CE01368C4F8C8
:106AC0001CE0BEF1000F11D03046DEF80040234438
:106AD000CEF80030864209D0002397F800E097F8FE
:106AE00001C0137406464FF0010A88E7002397F8A7
:106AF00000E097F801C0137481E700BF2430002044
:106B000025300020283000201C300020F004040034
:106B10000C2F0020FEFF7F000010014000E100E08C
:106B20002C30002018300020193000201346F06966
:106B3000C8F80000D8B1D3F81CE01B68C4F81CE00A
:106B4000BEF1000FC1D1C5E7BBF1000F7FF45FAF0D
:106B5000002389F8003005B0BDE8F08F002C3DD14E
:106B60009B1A0B604FF0010B99E63346DFE7019368
:106B70001C4BDFF87CC003924FF0010E0291C3F86A
:106B800008E0009BCCF8000089F800E04FF43C607E
:106B90009847D8F80000019B0299039ACBE7114D62
:106BA000114A124C4FF480334FF400310127C2F8E0
:106BB00080103C43C5F848334FF43C60C5F80833B7
:106BC0006F60A0470A4BAF604FF43C601E60A04767
:106BD000084B1E7068E7C8F8001057E6C8F80010A8
:106BE000BEE700BF0010014000E100E0F004040037
:106BF00028300020193000202DE9F8431F4D204E89
:106C0000204FDFF898804FF480334FF400324FF07C
:106C100001090024C6F8802047EA0907C5F848336F
:106C20004FF43C60C5F80833C5F80490B847C5F880
:106C300008904FF43C60C8F80040B847124B134826
:106C40001349144A1C70144B04600C7014704FF4F8
:106C50008011E0220B2098701C705C70C6F88011C7
:106C600086F814233160C5F8084586F81123D5F855
:106C70000435C8F800302046BDE8F8830010014014
:106C800000E100E0F0040400193000202C30002066
:106C900024300020253000200C2F00202830002038
:106CA000074B9B780BB9082070473AB130B10368A5
:106CB000187C0028F7D159745A6170470720704733
:106CC0000C2F00202DE9F043264CA37883B01BB98C
:106CD000082003B0BDE8F0830028F9D0042903D8C8
:106CE000072003B0BDE8F0834369002BF0D00646CF
:106CF00002A8737C0025012B00F8015D0CBF8946BA
:106D0000A94690460F4600F06FF86378A078217886
:106D10005A1CD2B2904208BF2A4691421BD003EBC4
:106D2000430304EBC30301200F4918719E60D1F89F
:106D300004159DF80700D9601F61C3F81490C3F8CB
:106D40001880627000F076F8084B4FF480122846E5
:106D5000C3F80021BDE79DF8070000F06BF80420A0
:106D6000B7E700BF0C2F00200010014000E100E059
:106D700070B51B4CA37882B013B9082002B070BD67
:106D80000028FAD04369002BF7D0064602A8002558
:106D900000F8015D357400F027F86278A07821785A
:106DA000531CDBB2984208BF2B46994212D002EB2B
:106DB000420204EBC20202219DF8070096601171A5
:106DC000637000F037F8074B4FF480122846C3F881
:106DD0000021D3E79DF8070000F02CF80420CDE750
:106DE0000C2F002000E100E070B4EFF3108472B6C5
:106DF0000D4B9A68AAB90D490D4E01259D60D1F839
:106E0000805035401D60C1F88060D1F884505D60CD
:106E10004FF0FF33C1F88430027004B962B670BC21
:106E2000704701230370F8E77C5E002000E100E07A
:106E3000FC06FFBD094B9A6872B168B910B4EFF354
:106E4000108272B606491C680C605C684C609860E1
:106E500002B962B65DF8044B704700BF7C5E00204B
:106E600000E100E0F0B4B44B1A78062A20D0B34B0E
:106E70001B68062B00F08A80B14AD2F8883043F4B0
:106E80007003C2F88830BFF34F8FBFF36F8F4FF09E
:106E90001023D3F80022002AC0F28A81D3F80432EA
:106EA000002BC0F28581A74BA74A1A60F0BC70473F
:106EB00004331B681807DAD1A44B1B6803F0F002F7
:106EC000302A00F0658103F0E003402B00F0608180
:106ED0009E4B1B6803F0F003302B00F01E819B4B90
:106EE0001B6803F0F002302A00F0078103F0E00392
:106EF000402B00F00281954B1B6803F0F003302B10
:106F000000F0EB80914B1B6803F0F002302A00F098
:106F1000D08003F0E003402B00F0CB808B4B1B684C
:106F200003F0F003302B00F0B680884B1B6803F0B1
:106F3000F003302B00F09880844B1B6803F0F003C3
:106F4000502B3FD0814B1B6803F0F002302A28D031
:106F500003F0E003402B24D07C4B1B6803F0F002CD
:106F6000302A03D003F0E003402B80D14FF0804360
:106F7000D3F80024D2077FF57AAF6FF00102C3F88F
:106F800000246E4B1B68062B7FF476AF704B1B689A
:106F9000062B7FF471AF6F4A136843F4806313606C
:106FA0006AE76D4B6D4A1B6803F04F031360624B39
:106FB0001B78062B7FF45BAF694B1B6818077FF4C7
:106FC00056AFC9E74FF08052664BD2F80414C3F8AD
:106FD0002015D2F80814C3F82415D2F80C14C3F8FD
:106FE0002815D2F81014C3F82C15D2F81414C3F8CD
:106FF0003015D2F81814C3F83415D2F81C14C3F89D
:107000004015D2F82014C3F84415D2F82414C3F85C
:107010004815D2F82814C3F84C15D2F82C14C3F82C
:107020005015D2F83014C3F85415D2F83414C3F8FC
:107030006015D2F83814C3F86415D2F83C14C3F8BC
:107040006815D2F840143C48C3F86C15D2F84414C3
:107050000278C3F87015062A7FF409AF404B1B680D
:107060001C077FF404AF6DE73F4E404C4049414B55
:107070000527012500203F223760256008601A603F
:107080002D4B1B78062B7FF4F2AE354B1B681D078A
:107090007FF4EDAE50E7284B374A1B780321062BCF
:1070A00011607FF4E4AE2E4B1B681E077FF4DFAE49
:1070B0003BE74FF080430022C3F80C21C3F81021B6
:1070C000C3F838251C4B1B78062B7FF470AF244B7C
:1070D0001B681F077FF4CBAE20E72849164ACB6810
:1070E000127823F08073062ACB607FF4C0AE1C4B6D
:1070F0001B681B077FF4BBAE04E7214B0E4A1B68DD
:1071000012782049C3F34233062A0B60B8D1144BDE
:107110001B681A077FF4ABAEEDE6074B1A4A1B78E3
:107120001A491160062B7FF4A2AE0D4B1B6819079C
:107130007FF49DAED3E600BFE00F00F030010010F9
:1071400000ED00E0A42D00200090D003E80F00F037
:10715000340100103C17004058020010E40E0040BB
:10716000E40F00F000C00040105600408856004078
:107170001856004014560040A0050040F0ED00E015
:10718000440200103C05004074C007400DF0ADBA49
:10719000204B214A1B6812782049C3F30423062A96
:1071A0000B608FD11E4B1B6819073FF491AE5EE652
:1071B0001C4B0122C3F80425D3F80024002AFBD07D
:1071C0004FF0102315221749C3F80022D1F80034DC
:1071D000002BFBD04FF010221521124BC2F80412E5
:1071E000D3F80024002AFBD000220E49C3F804255E
:1071F000D1F80034002BFBD0BFF34F8F0A490B4B63
:10720000CA6802F4E0621343CB60BFF34F8F00BF44
:10721000FDE700BF24030010E00F00F040350140FF
:10722000E40F00F000E0014000ED00E00400FA058A
:107230002DE9F04F754F3B7883B082468B469046E0
:10724000F3B9734ABB6202217B62FB62BB657B655B
:10725000FB6540F2FF3010236E4D6F4C3B6539618A
:107260007961BA61BA646D493862FD61F81DFC64E8
:1072700018F0D6FE6A49384618F0D2FE2023BB71BA
:107280004FEA4A0502A805EB0A06002407EBC606EA
:1072900000F8014DFFF7A8FDD6F82C90B9F1010FC9
:1072A00065D03CD3B9F1020F30D10AF1010A0AEBE3
:1072B0004A0A756A4FEACA0AA1461DE0326A641B8F
:1072C000444507EB0A012346A2EB050428BF4346C9
:1072D0009C42486828BF1C4628445946224618F05C
:1072E000D0FD336A25449D4208BF0025B8EB040851
:1072F000A144A34475620AD0B36AAB4203F1FF34E0
:10730000DCD8326A1344013B5C1BD9E7A1469DF8E7
:107310000700FFF78FFD484603B0BDE8F08FB36A62
:10732000746AA3429CBF326A9B18013B1B1B9845A1
:10733000EDD8554407EBC5050AF1010A2E6A361B44
:107340000AEB4A0AB04507EBCA0754D378683246BD
:1073500020445946A8EB060418F093FD78680BEB1F
:107360000601224618F08DFDC1466C62CFE7B36A74
:10737000746AA34225D903F1FF39366AA9EB0409DF
:10738000C14528BFC146361BB14522D30AF10108C9
:1073900008EB480807EBC808AA44D8F804003246AE
:1073A00020445946A9EB060407EBCA0718F069FD0B
:1073B000D8F804000BEB0601224618F062FD7C624F
:1073C000A5E7366A03EB060909F1FF39A9EB0409C1
:1073D000D6E70AF1010303EB430307EBC303AA4417
:1073E000586807EBCA07204459464A464C4418F0EF
:1073F00048FD7C628BE77868594620444246444405
:1074000018F03FFDC1466C6281E700BF885E002036
:10741000F80404004030002030300020040504004F
:1074200008050400F0B583B002A80023384C00F82A
:10743000013DFFF7D9FC2378002B38D0A56D666D90
:10744000B54219D807D19DF80700FFF7F3FC4FF0BC
:10745000FF3003B0F0BDE16C012229440DF10600BC
:1074600018F00FFD01359DF80700A565FFF7E2FC58
:107470009DF8060003B0F0BD276DE16C7F1B012F66
:1074800028BF012729443A460DF1060018F0F9FCFF
:10749000236D3D449D4208BF0025761BC7F10103C3
:1074A0009E4228BF1E4616BB002FDCD1CBE7022030
:1074B000184AA36218496362E362A3656365E365E2
:1074C000206110236061154F154D236540F2FF3692
:1074D000E01DA261A264E7612662E56418F0A0FDE8
:1074E0001049204618F09CFD2023A371A6E7E16C0B
:1074F0000DF106032944D819012218F0C2FC013508
:107500009DF80700A565FFF795FC002FB0D09EE71A
:10751000885E0020F80404000405040040300020C8
:1075200030300020080504002DE9F84F1746B94215
:10753000884606461D46DDF828A00B9AC0F0B480A8
:107540000B464FF00109B3FBF7F39F4209F1010924
:10755000F9D9A94538BFA94612F0010B02D1BAF1F9
:10756000000F6BD1F068002861DBB268012402E0F3
:10757000013D07FB04F4012DFAD8B8FBF4F18F426A
:10758000F7D94D4D06E0002821DBB4FBF7F4F4B148
:10759000B8FBF4F1736802F1010E9E4504FB1188FB
:1075A00009D83068695C8154F0687368C6F808E0EF
:1075B00001307246F0609342E5D131683069FFF7DF
:1075C00037FEB268904234D04FF0FF33F360BBF126
:1075D000000F2CD0BAF1000F62D0D14567D2202520
:1075E000002407E0F368002B21DBBAF1000F59D02B
:1075F000CA451CD07368511C99420AF1FF3A07D85A
:1076000033689D54F2687368B160501CF0600A469C
:107610009342E7D11A4631683069FFF709FEB36833
:10762000984235D04FF0FF33F360BDE8F88FBDE8E6
:10763000F88F0023F068B3601A46A4E793072AD4B2
:107640002024CA458ED9B26807E0F068002830DBF4
:10765000BAF1000F8AD0CA4588D07168501C8842A0
:107660000AF1FF3A07D831688C54F2687168B0604B
:10767000531CF36002468A42E7D131683069FFF754
:10768000D7FDB2689042CDD10023B3601A46DCE743
:10769000B4600022A6E7002D0CBF30242024D0E7E0
:1076A000BDE8F88FBDE8F88F4FF0010951E7BDE85C
:1076B000F88FBDE8F88F00BF100504002DE9F04FEA
:1076C0009DB004460390402300209146DFF84CB45F
:1076D0000B940CAA0C460792089309900A9014F890
:1076E000013B002B5AD0252B62D10027254614F8E8
:1076F000011BA1F123030D2B14D8DFE803F00713BE
:1077000013131313131310130D13130A47F0080761
:10771000ECE747F00207E9E747F00107E6E747F043
:107720000407E3E7A1F13003092B4FF000040BD865
:1077300004EB840401EB440415F8011FA1F13003AC
:10774000092BA4F13004F3D92E2972D0002601E0D0
:1077500015F8011F01F0FB03682BF9D0642900F034
:10776000CC8045D9732900F08C8078D9752940F0F8
:10777000B280D9F800301A1DC9F8002019680197A5
:1077800007A8334600940A22FFF7CEFE0A986C1C25
:10779000002825DB14F8013B002BA4D100281FDDB5
:1077A000099A002A40F03E8110441DB0BDE8F08FD8
:1077B0000999089D4A1CAA4215D8079843540A986B
:1077C000089B099201309A420A90E1D107990B98DF
:1077D000FFF72EFD099B984200F020814FF0FF300B
:1077E0001DB0BDE8F08FA9427FF479AF0A46EDE7FE
:1077F000582973D0632900F0EF802529C7D1099A51
:10780000089B541C9C4207D8079B99540A98089BD4
:107810000994013022460A909A42B8D107990B98F0
:10782000FFF706FD099B9842D8D100230A980993D7
:10783000ADE76978A1F13003092B05F101054FF09F
:10784000000687D806EB860601EB460615F8011FF1
:10785000A1F13003092BA6F13006F3D97AE770299C
:1078600095D1D9F800301A1DC9F8002019680022F6
:107870000823019207A800931022FFF755FE0A98EB
:1078800085E7D9F800301A1DC9F800201E680024C9
:1078900016F8011B00293FF47AAF099B089F5A1C78
:1078A000BA420BD80798C1540A98089B0992013034
:1078B0009A420A9005D00028EADA68E7BB42E7D18D
:1078C0001A4607990B98FFF7B3FC099B984285D19C
:1078D0000A980994EFE778297FF459AFD9F8003076
:1078E0001A1DC9F800201968019707A833460094AB
:1078F0001022FFF719FE0A9849E7D9F800301A1D3F
:10790000C9F80020D3F800A08AEAEA73A3EBEA736F
:10791000092B4FF0010808DD8BFB0312DB17C3EBCB
:10792000A203092B08F10108F6DCB04538BFB046C8
:10793000002C3ED0BAF1000F01DB790700D5013CE5
:10794000BA0701D5002E34D017F0010331D184B32A
:1079500044452ED90593099A2023864606E0BEF1B8
:10796000000FC0F2D9801CB3444521D00899501CA7
:10797000884204F1FF3409D807998B540A9A089970
:10798000099002F1010ECDF828E002468A42E6D1C4
:1079900007990B980493FFF74BFC099A049B9042BC
:1079A0007FF41CAF059A0992DDF828E00022D6E7A3
:1079B0007046BAF1000F3DDB7B0750D407F003039C
:1079C000022B5FD007A88DE89000334651460A226B
:1079D000FFF7AAFD0A98DAE6099AD9F80040089B51
:1079E000511C261D9942C9F8006008D8079B2068E1
:1079F00098540A98089B099101300A460A909A42C5
:107A00007FF4C5AE07990B98FFF712FC099B9842CB
:107A10007FF4E4AE002309930A98B8E600230A989D
:107A20000993B5E60CA90398FFF702FC0A98099A96
:107A30001044BAE6099B089A591C9142CAF1000AFF
:107A40005DD99342BAD107990B98FFF7F1FB099BD7
:107A500098427FF4C3AE002309930A980EE0099B75
:107A6000089A591C91423BD8079A2B20D0540A9867
:107A7000089A0991013091420A9034D00028FFF60B
:107A800086AE9BE7002E9DD1002C43D0444599D96A
:107A9000099A06E00028FFF67AAE002C3AD0444559
:107AA00090D0089B511C994204F1FF3409D8079BE0
:107AB0004FF0300098540A98089B099101300A460B
:107AC0000A909A42E6D107990B98FFF7B1FB099B00
:107AD00098427FF483AE00230A9809931A46D9E7A7
:107AE00093427FF46BAF07990B98FFF7A1FB099BBB
:107AF00098427FF473AE00230A980993BEE7079A71
:107B00002D20D0540A98089A0991013091420A9088
:107B1000B4D198E7002455E7704638E66766666694
:107B20000EB400B582B003AB02AA53F8041B42F8AE
:107B3000043DFFF7C3FD02B05DF804EB03B07047EE
:107B40004BDF704710DF704760DF704769DF7047B9
:107B500000B583B002E0019803F0D4FE01A8FFF75E
:107B6000EFFF0028F7D003B05DF804FB00B589B043
:107B700008AB244943F81C0D1846FFF7E3FF002823
:107B800033D1214AE02382F8163392F816335B0989
:107B9000012B2DD9042B2BD01C4B996869BB4FF4BA
:107BA000800313601A4B0393039B04930C22002160
:107BB00005A818F071F9002305A9049A8DF814306E
:107BC0000120FFF7C3FF80B901460C2205A818F079
:107BD00063F9F82305A9049A0593A120FFF7B6FFDE
:107BE00018B904A8FFF7B0FF039B09B05DF804FBC8
:107BF00042F2020009B05DF804FB1A6842F4800208
:107C00001A60CFE74D67020000E100E07C5E0020D3
:107C1000A02D002010B50378052B17D0082B0CD011
:107C2000022B00D010BD144B1A78144BEAB11B681C
:107C3000002BF7D0BDE8104018478168C06808F0F5
:107C40008BFB78B90C4B01221A7010BD0B4B0C4802
:107C50009968102213F0DCF80028E3D0BDE810404A
:107C6000FEF756BDFEF754FDECE7596804480123C2
:107C7000BDE8104013F050B83F34002040340020DD
:107C80003436002070B51A4B1A4C054693E80700AD
:107C900086B003AB03C3160C23F8022B95E807004C
:107CA0001E7084E8070002B31349144813F032F839
:107CB00008B106B070BD124B00930F4A0F4911482E
:107CC00003AB12F0F3FF0028F3D10F4814F000F9D2
:107CD00001460C4813F008F80028EAD10246616812
:107CE0000848012313F018F8E3E7072006B070BD39
:107CF00020050400403400204C3400206837002068
:107D0000157C0200343600206C34002010B5054C80
:107D1000236813B905E023689847FFF783FB002821
:107D2000F9DA10BDA8370020184B194A10B51860B1
:107D30000C4618480121FEF7B3FF08BB610C002375
:107D4000E00341F26F728B4208BF82420BD24FF4C4
:107D50007A72002318F086F9002201460E48FEF7D9
:107D6000B1FF38B910BD052100220B48FEF7AAFF6C
:107D70000028F7D0094A4721BDE81040FEF7D8BCDB
:107D8000064A4621FEF7D4FCD8E700BFA8370020FA
:107D90000D7D02002C050400AC37002030050400E6
:107DA00010B50C4C206888B10B4B4FF0A0421968FD
:107DB000D2F8043501384B40C2F80435206000B1D8
:107DC00010BD0648BDE81040FEF7D2BFFEF7A0FC8C
:107DD0002068E9E7CC370020D0370020D4370020D6
:107DE0004FF0A0420123D2F8042503FA00F010421C
:107DF0000CBF18460020704701234FF0A04203FA41
:107E000000F011B9C2F808057047C2F80C057047B8
:107E10004FF0A04311B9C3F808057047C3F80C052B
:107E2000704700BF0AB1132900D87047F8B5520057
:107E30004FF40043104D114C4FF4FA760027E3FB4A
:107E40000167013A2A6020604FF47A723046394661
:107E5000002318F007F9002201460948FEF732FF17
:107E600040B94FF0A0422168D2F8043523EA01035B
:107E7000C2F80435F8BD00BFCC370020D037002051
:107E8000D43700204FF0A04370B54FF08061032439
:107E90004FF000664FF08055C3F868470A4AC3F8B0
:107EA00008150A48C3F86C470121C3F80865C3F8F0
:107EB0007047C3F80855FEF7F3FE00B970BDBDE882
:107EC0007040FEF725BC00BFA17D020078050400CC
:107ED000C0B1F0B40C490D4A08600D4B0D4F4FF086
:107EE000A0404FF000460021E0254024C0F8647710
:107EF000C2F80463C2F87C1183F806531C6008467C
:107F0000F0BC70470E207047F4370020006000403E
:107F100000E100E00C0003000F4A00214FF0A043F5
:107F2000C2F87C11D3F810359B010CD40B4902F533
:107F3000A0420B68D2F80425981A48BFD01A43F221
:107F40003333984200D87047054A064BD2F80425CF
:107F50001B680A600020184700600040F8370020C6
:107F600000B00040F4370020082A01D909207047EA
:107F700038B50546144617F084FFC4F108022819E5
:107F8000002117F089FF05F108000822024917F0C7
:107F900078FF002038BD00BF600000100620704749
:107FA00000B583B000220146054BADF8002044F235
:107FB00002006A460193FEF7C9FB03B05DF804FBBB
:107FC000D403040001461022014817F05ABF00BF35
:107FD000FC37002010B5074C07492046082217F04F
:107FE00050FF04F1080008220449BDE8104017F0D2
:107FF00048BF00BFFC37002060000010A400001044
:1080000000487047FC370020064B002203F58071C2
:108010005A805A6003F8082B8B42F9D1024B1A6040
:10802000704700BF0C3800200C390020F0B40D4B15
:108030000D4D1B68074620226BB1013B15F833003C
:1080400005EBC30428B16688BE4206D0013AF3D1DD
:108050001046F0BC70471F23F0E764688C42F5D1EE
:10806000F0BC70470C3900200C380020F0B4094DEA
:10807000094C2B68012704EBC302DE19202E04F8FB
:108080003370508051600ABF00232E602B60F0BC1B
:10809000704700BF0C3900200C38002000B58DB0AF
:1080A00040B99A1C06D0012201A802938DF8042041
:1080B00001F0BEFC034B186804F0B8FF0DB05DF88A
:1080C00004FB00BF203900202DE9F0430D468FB09E
:1080D00017461C468046002841D0002D3BD0002C7E
:1080E00043D06278A178636AA2F1080200290DF1F9
:1080F0000409B2FA82F20CBF022101219E1C52092E
:108100004B4604F10C00059605F0EAF8237B6278F3
:10811000CDF8189015FA87F1022BCDF81C80ADF838
:1081200020700C910B958DF8342008D0002305A801
:10813000ADF8283005F0D0F80FB0BDE8F083236922
:10814000BBB1099305A81023ADF8283005F0C4F899
:108150000FB0BDE8F0837846FFF722FFBFE778460F
:10816000FFF71EFF002DBAD1F5E77846FFF718FF9D
:10817000B7E77846FFF714FF2369E2E72DE9F04FF0
:1081800014461278A769F1B0054688469A4652B15E
:10819000A288C7F30C0393423ABFA7F500515218C7
:1081A000D219D31AA3616278A378A2F10802002B36
:1081B00001AE04F10C09B2FA82F20CBF02210121D6
:1081C00033465209484605F08BF86178227BA76157
:1081D0001FFA88F8A8EB01039BB2EF18002006965F
:1081E000022A10AE07958DF834100C97ADF82030A8
:1081F000ADF828000B9600F08180A578002D60D0A6
:1082000004F124070025022A04BF2369099365624B
:108210003A460CE002330DF1030105A805938DF8F1
:10822000035005F05BF89DF803303A462BBBE1782C
:10823000206A0CF0DFFB636A002BEBD1237B022B5F
:108240003CD14946E0890CF085FC002836D0227BE1
:10825000D9E704F1240B5946E0890CF00BFC0DF131
:108260000307636A3D70002B32D00233394605A8FC
:10827000059305F033F83B7853B399E8030062782F
:10828000A57D06960AAB83E80300A8EB0208A68A40
:10829000216A626ACDF83CA00023012405A8ADF84C
:1082A0001C80ADF822608DF8143009938DF82040C1
:1082B0008DF838500C910D9201F0BAFB71B0BDE809
:1082C000F08F012A6562C4D004F1240B0DF103077D
:1082D000002559466562A08A0CF0CCFB636A3D70AC
:1082E000002BEBD00233394605A8059304F0F6FFC6
:1082F0003B78002BC1D171B0BDE8F08FA37810217D
:10830000ADF82810002B7FF47BAFDDE72DE9F04FAF
:1083100090F84C50C779BD4289B000F2C680013553
:1083200000F10C030446EDB24FF000094FF00108D4
:10833000019304E06B1CAF42DBB227D31D466B1EDA
:108340005FFA83FBA26C08FA0BF11142F2D1E27DD5
:10835000019B84F806B0002A0CBF0C260826BB45FA
:1083600006FB0BFA227808BFB4F84660039308BFF7
:10837000A6EB0A06002A0CBF01270427F119A26AFE
:10838000059103A8049205F0ADF918B1484609B06B
:10839000BDE8F08F079A1744BBF1000F08D194F89D
:1083A0004F1029B9A16984F84F80C1F30C01A18055
:1083B000E17D00296CD194F84E1089B9BBF1000F12
:1083C0006FD16378A16EB4F846200846D21A2346CE
:1083D000FFF77AFEE37D84F84E80079A002B57D191
:1083E000A1781378890123F0400301F0400119437B
:1083F0001170E37821F03F0103F03F030B4313704A
:10840000217803F07F0343EAC1131370237883B309
:10841000607853789178A0F10800B0FA80F04009B4
:1084200003F07F0343EAC0135370A08801F00301F7
:10843000C0F3861E41EA800123F07F034EEA030366
:10844000C9B291705370D378A07903F01F0321F063
:108450000301C0F3C10E43EA40134EEA0101DBB24F
:10846000D3709170E17923F01F0301F01F010B43DA
:10847000D370A16E32463846514417F002FD03A86E
:1084800005F07CF909F10109E77984F84C5051E7CE
:108490001378A17823F07F0301F07F010B43137061
:1084A000AEE77846FFF77CFD8BE74FF000096DE7FC
:1084B0002DE9F041037886B004460F461646002B9E
:1084C00073D1C27D4378002A0CBF0F220B223344A4
:1084D000934204D90925284606B0BDE8F08101334E
:1084E00004F10C01A26A039301A80191029205F024
:1084F000F9F805460028EED1059AE37D501C002BC3
:1085000000F0EA801378A17823F07F0301F07F0167
:108510000B431370217803F07F0343EAC1131370F8
:108520002378A3B394F801E053789178AEF1080E64
:10853000BEFA8EFE4FEA5E1E03F07F0343EACE13BF
:108540005370B4F804C001F00301CCF3861E41EA75
:108550008C0123F07F034EEA0303C9B2917053707C
:10856000D37894F806C003F01F0321F00301CCF385
:10857000C10E43EA4C134EEA0101DBB2D370917095
:10858000E17923F01F0301F01F010B43D370E37D5A
:10859000002B40F097800146234632463846FFF7CD
:1085A00093FD01A805F0EAF895E7C37D4578002B17
:1085B0000CBF4FF4C0734FF4807315449D4289D8AB
:1085C000EFF3108272B6574B93F84410002900F075
:1085D000958093F8B010002900F0988093F81C1152
:1085E000002900F08A8093F88811002900F090801B
:1085F000002A65D1904662B6B8F1000F60D0D8F875
:10860000683013B17846FFF7CBFC474B28461B6810
:108610009847C8F86800002852D021462C224046CE
:1086200017F02FFC0023A8F84650C8F84830A3697B
:10863000A088C3F30C01814249D30344591A3B4D2E
:10864000C8F818102B7D88F84D30002388F84E307C
:1086500088F84F3088F84C30A26A354BC8F8502063
:108660006FF00102C8F82820C8F834300120C8F89B
:108670003C8002F031FC012388F844303246394610
:10868000D8F8680017F0FDFB4046FFF73FFE98F86A
:108690004430012B02D07846FFF782FC98F80C306A
:1086A000012B37D0EB68C8F8383003F0F3FFD8F867
:1086B0003810014408F12C0003F0F4FE00250AE70D
:1086C000042508E73246394617F0DBFB69E7A3F5D6
:1086D00000520244511AB2E7A1781378890123F0BD
:1086E000400301F0400119431170E37821F03F018C
:1086F00003F03F030B4313700CE702214FF06C08AB
:1087000008FB0138002A7FF47AAF74E70121F5E70E
:108710000321F3E798F816302969EA6801FB03237F
:10872000C1E700BF843900201C3900206C390020CB
:108730000D89020070B505468EB00C460622002158
:1087400001A817F0A9FBA8889DF804209DF8053022
:10875000A97D8DF80940C0F3861622F07F0203F050
:10876000030343EA80033243200C260E240A8DF8CB
:1087700005308DF804208DF806608DF807008DF81F
:1087800008402B6A09B11E4A517D03B3EC89AE8AB9
:108790000B930122002320466FF001058DF8221073
:1087A000ADF82040ADF81A608DF80E300C938DF8BE
:1087B0000C308DF80D3007938DF823208DF818209C
:1087C0000D9502F047FF012804D0102000E00E2094
:1087D0000EB070BD9DF81830002BF6D0022B0BD0D8
:1087E0009DF92230002B05DB01A9062203A8FFF723
:1087F0005FFEEDE70720EBE7079B002BF0D1E4E7F6
:108800006C39002010B591F84430022B0C4602D090
:108810007846FFF7C5FB237B0222012B84F86420F6
:1088200003D0002384F8643010BDA16C2046FFF70C
:1088300081FF0028F5D010BD2DE9F0430D468DB025
:108840000446002858D02378002B4CD02C492D4EBC
:108850000868B4F814C000F00707FB0006EB030E2D
:108860000130AEF802C0A269B4F804E00860C2F3B7
:108870000C00704532D37244101A33444FF0000894
:108880005860E269D4F8509006F8378002F001028F
:1088900041465A7001A82C2217F0FEFA0F2301A8B6
:1088A0008DF80430CDF808908DF80C5001F0C0F828
:1088B000154BA06E1B689847C4F8688004F12C0023
:1088C00003F0C2FD94F84430022B10D0002084F84D
:1088D000440002F001FB0DB0BDE8F083A2F50051A9
:1088E0007144081AC9E77846FFF75AFBAEE704F16E
:1088F0004C0003F0A9FDE9E77846FFF751FBA2E73A
:1089000068390020283900202439002010B591F85A
:108910004430012B8CB00C4602D07846FFF740FB68
:1089200094F84D1031BB237B012B33D094F84430A5
:10893000012B02D07846FFF733FB0122236D8DF81F
:10894000042001A8029301F073F8154BA06E1B6878
:1089500098470023A36604F12C0003F075FD94F8FA
:108960004430022B11D0002084F8440002F0B4FA05
:108970000CB010BD0139002384F84D1084F84C3040
:108980002046FFF7C3FC0CB010BD04F14C0003F00F
:108990005BFDE8E72046FFF74FFF0CB010BD00BFBE
:1089A000243900202DE9F0410C468CB0002952D02A
:1089B0002378002B46D02A492A4E0868B4F814E0E0
:1089C00000F00707FB00F5180130A5F802E0A269E6
:1089D000A5880860C2F30C00A8422ED32A44101ABE
:1089E000334400255860E269D4F8508006F83750C7
:1089F00002F0010229465A7001A82C2217F04CFA05
:108A00000F2301A88DF80430CDF8088001F010F88C
:108A1000154BA06E1B689847A56604F12C0003F067
:108A200013FD94F84430022B10D0002084F8440049
:108A300002F052FA0CB0BDE8F081A2F500512944D1
:108A4000081ACDE77846FFF7ABFAB4E704F14C001B
:108A500003F0FAFCE9E77846FFF7A2FAA8E700BFBF
:108A60006839002028390020243900202DE9F843F6
:108A7000944C94F84430012B74D094F8B030012B0E
:108A800000F08B8094F81C31012B00F0A48094F846
:108A90008831012B00F0BD808B4C8C4F8C4EDFF861
:108AA000508204F5D875237E022B05D06C34AC427D
:108AB000F9D10120BDE8F88394F83830022BF5D1C4
:108AC00014F8203CD4F81C90012BA4F12C0000F0E9
:108AD000C28014F82C3C002284F83820002B00F0CF
:108AE000B68014F8252C01231A449340013B4B45D2
:108AF000DCD114F82C3C002B00F0DB803A6854F8F1
:108B0000141C34F828CC34F8189C02F00700C30079
:108B100001323A60C1F30C0EF218E645A2F8029059
:108B2000C0F0A2806144A1EB0E01334454F8102C34
:108B3000596002F0010201215A7006F83010D8F88D
:108B40000030E06B98470023E363204603F07CFC91
:108B5000237E022B00F0B18000231846237602F01A
:108B6000BBF9A3E72046FFF7D1FB002885D094F896
:108B70004430012B02D07846FFF712FA237B012BF9
:108B800000F09080534BDB68A36303F083FDA16B7F
:108B900001444D4803F086FC6FE74F48FFF7B6FBF2
:108BA00000283FF46FAF94F8B030012B02D0784624
:108BB000FFF7F6F994F87830012B63D0454BDB686A
:108BC000C4F8A43003F066FDD4F8A410014443486F
:108BD00003F068FC56E74248FFF798FB00283FF493
:108BE00056AF94F81C31012B02D07846FFF7D8F924
:108BF00094F8E430012B3DD0364BDB68C4F81031DB
:108C000003F048FDD4F810110144364803F04AFC43
:108C10003DE73548FFF77AFB00283FF43DAF94F875
:108C20008831012B02D07846FFF7BAF994F8503119
:108C3000012B2FD0274BDB68C4F87C3103F02AFDD1
:108C4000D4F87C110144294803F02CFC24E7784631
:108C5000FFF7A6F945E74946FFF76CFD00287FF4CA
:108C600025AFD4F81C9034E7A1F500526244A2EB82
:108C70000E015AE7174A94F8EE301169D26801FBE9
:108C80000323BBE7134A94F882301169D26801FBD1
:108C9000032395E70F4A94F85A311169D26801FB12
:108CA0000323C9E70B4AA37D1169D26801FB0323A3
:108CB0006AE77846FFF774F920E704F1200003F033
:108CC000C3FB49E784390020B0390020683900200F
:108CD000283900206C390020F03900201C3A00208F
:108CE0005C3A0020883A0020C83A0020F43A00207C
:108CF000243900202DE9F04FD47D8FB024B9FFF73F
:108D00003DFA0FB0BDE8F08F9478164607468E46C0
:108D1000002C4AD09C468D4B1B680193002BF0D051
:108D2000DFF838B24FF00009DA46DAF8045095B1AE
:108D30005BF839000378A34215D000F10802002344
:108D400003E010F83310A1420ED00133AB4290463D
:108D500002F10802F5D1019B09F1010999450AF1D7
:108D6000080AE2D1CDE78046D8F80430002BC8D0FD
:108D700006F10C0292E803008DF80C40346A049767
:108D800007AAB78A0994B57D3478CDF814E082E853
:108D90000300ADF81A708DF8285061468DF8184020
:108DA00003A898470FB0BDE8F08F0629A9D1C37872
:108DB0008178674D027890F805C090F804E040781B
:108DC0001B0443EA016395F84410920143EA0C0343
:108DD00002F4FE52012943EA0E2342EA900269D0CE
:108DE00095F8B040012C5BD095F81C1101294CD0AE
:108DF00095F88811012984D1F189B5F85801884284
:108E00007FF47FAFB5F84811914208BF03247FF487
:108E100078AF6C2606FB04F605EB0608D8F8487018
:108E20001F43C8F84870002B50D0AB5D002B49D0D1
:108E300098F8072001231A449340013B9F424AD0EF
:108E40006C2707FB0457002387F84C304046FFF798
:108E50005DFA97F84430012B02D07846FFF7A0F86E
:108E60006C2303FB04531A7B012A62D0394BDB6865
:108E70006C2202FB04542C36A36303F00BFCA16BA1
:108E80000144A81903F00EFB3BE7F089B5F8EC109C
:108E90008842ADD1B5F8DC109142A9D10224B8E7DF
:108EA000F089B5F8801088429ED1B5F870109142D3
:108EB0009AD1AEE7F089A98A884291D1A9889142D6
:108EC0008ED1A6E77846FFF76BF8B1E7404603215D
:108ED000FFF7B2FC15E76C2303FB045393F844300F
:108EE000012B02D07846FFF75BF86C2707FB04578D
:108EF00001233A6D049203A88DF80C3000F098FD20
:108F0000154BB86E1B689847002306F12C00BB6612
:108F1000284403F099FA97F84430022B10D06C23C0
:108F200003FB04540023184684F8443001F0D4FFB6
:108F3000E7E6084A9B7D1169D26801FB032397E7A6
:108F400006F14C00284403F07FFAE8E710390020CE
:108F5000843900206C390020243900201439002085
:108F6000F8B5EFF3108372B619481A4A1A4C1B4928
:108F70000460116003B962B64FF4D872002118483A
:108F8000184F194E16F088FF002406F067FA174BA9
:108F900017481C602146402216F07EFF154B164AEA
:108FA0001A6004254CF25032082114489C755F6009
:108FB000DE601D759A601A61597504F017F8104B40
:108FC000104A1C601060BDE8F8400F4806F032BB44
:108FD0001C3900202439002045FE030055FE030003
:108FE00084390020F049020020A1070068390020E0
:108FF000283900206C390020809698006D8A020084
:1090000010390020203900209D8002002DE9F04F0A
:109010009BB0B0B1AAB190460DF1080904460E46C6
:109020004846002108221F4616F036FF4946B8F888
:1090300002000BF08FFD48B9002528461BB0BDE8A3
:10904000F08F0E2528461BB0BDE8F08FD8F8102011
:10905000D8F80C10B8F8080002F0010206F03CFA4B
:1090600082460028E8D1D8F81020D8F80C10B8F8BB
:10907000080002F0010206F001FA0546002840F05F
:10908000E5800DF11C0A41461822504616F0F9FE03
:1090900023789DF8271003F08002101C18BF0120D0
:1090A0008DF81000002900F0108103F07F038DF887
:1090B00012308DF81150A2B1A0786378E178C20027
:1090C0009B0102F0180203F4FE5342EA511243EAF4
:1090D000900301F01F01ADF814308DF816208DF8C3
:1090E000171099E803004FF000088AE80300CDF854
:1090F000348003F039FF9DF81030002B00F0DE8043
:10910000DFF8A0A5BDF824209AF84430022B00F027
:10911000F3809AF8B030022B00F010819AF81C31DD
:10912000022B00F013819AF88831022B00F0158190
:10913000BDF814304FF000080A99DFF86C950B98D1
:10914000C1F30C0E9E4538BFA1F50051A1EB0E01F5
:109150000B44D9F804108B4200F0010000F012819A
:10916000D9F80C108B4200F00181D9F814108B4211
:1091700000F03881D9F81C108B4200F02781D9F813
:1091800024108B4200F01681D9F82C108B4200F08D
:109190000581D9F834108B4200F03081D9F83C10A9
:1091A00099426BD0B8F1000F00F0748198F8443008
:1091B000022B02D07846FEF7F3FEDFF8F0B4DBF8BE
:1091C0000010009103F066FA009908F12C0A01449E
:1091D000504603F067F998F80C30012B00F01E811F
:1091E0009DF816E0D8F84830012202FA0EF2134238
:1091F00029D198F8071013437145C8F84830A6F1F3
:10920000040200F03C819DF82730002B00F02681FD
:10921000082A40F02581D8F868000823211D03FBA7
:109220000E0016F02EFE98F80030D8F84840002BBB
:1092300000F0B78198F8072001231A449340013BBE
:109240009C4200F0598103F0B1FEFBE651460FA8A5
:109250002C22B8F8086098F8104016F01DFE9DF812
:109260004230ADF8406064F300030E220FA88DF881
:1092700042308DF83C2000F0DBFBE3E6B9F83A30F1
:1092800093428FD199F83930834208BF072389D19F
:1092900019F83330002BD6D09DF81030002B00F099
:1092A000B9809DF81C30012BCDD19DF817200132DB
:1092B0009340591E04A8FFF73DFAC4E73B46711ED0
:1092C000601C04AAFFF716FDBDE7C3F3801003F08E
:1092D0003F011B068DF812008DF8131008D594F984
:1092E0000130002BACBF042308238DF81130E2E6D7
:1092F00004238DF81130F4E6BAF8143093427FF469
:1093000008AF6C2303FB08A8BDF81430B8F80410AC
:109310008B4298D37FF610AF40460521FFF78CFAB9
:109320009DF81080B8F1000F40F08B817846FEF771
:1093300037FEBDF82420BDF81430FDE6BAF88030C1
:1093400093427FF4EBAE4FF00108DAE7BAF8EC1085
:1093500091427FF4E8AE9846D3E7BAF85831934289
:1093600008BF4FF003087FF4E3AECAE7B9F80A106C
:1093700091427FF4FAAE99F8091081427FF4F5AE7C
:10938000012385E7B9F8021091427FF4E9AE99F81C
:10939000011081427FF4E4AE002379E7B9F82A1086
:1093A00091427FF4F6AE99F8291081427FF4F1AE34
:1093B00005236DE7B9F8221091427FF4E5AE99F8E4
:1093C000211081427FF4E0AE042361E7B9F81A105E
:1093D00091427FF4D4AE99F8191081427FF4CFAE58
:1093E000032355E7B9F8121091427FF4C3AE99F800
:1093F000111081427FF4BEAE022349E7B9F8321062
:1094000091427FF4CBAE99F8311081427FF4C6AE21
:1094100006233DE77846FEF7C3FD42E798F864303F
:10942000002B7FF4DDAE98F84430022B02D0784652
:10943000FEF7B6FD9BF81530DBF80810DBF80420CA
:1094400001FB032B03F026F90BEB000108F14C00A4
:1094500003F028F8012388F86430C1E60C2A0AD00A
:1094600040460421FFF7E8F9EDE603EB430302EB86
:109470008303A8F84630D8F868000C23CEE69DF8A0
:1094800027101FFA8EF30029EFD002EBC303A8F8D0
:109490004630C0E69DF817B09DF827300BF1010B60
:1094A000002B78D10C2303FB0BF300934FF4C07314
:1094B000009A93420DD34FF0000B6C2202FB0BA8D5
:1094C00098F84430002B75D00BF1010BBBF1040F61
:1094D000F4D19DF81C30012B67D00FA82C2200215D
:1094E00016F0DAFC0F2202230FA88DF83C208DF82D
:1094F000443000F09DFAA6E698F80C300222012BC9
:1095000088F8642000F0B1803B464246B8F8461027
:10951000D8F86800FFF7EEFB98F80030002288F8D2
:109520006420002B00F09D805949D8F818300A6853
:10953000B8F80460B8F8147002F00704E0000132D3
:109540000A6009EB0002C3F30C01B1425780C0F07E
:10955000838033445B1AD8F81C104E4E09EB00028E
:1095600001F00101536051700122336809F8342081
:10957000D8F8680098470023C8F86830504602F0D1
:1095800063FF98F84430022B61D0002088F8440033
:1095900001F0A2FC57E64FEACB0300934FF480732F
:1095A00086E77846FEF7FCFC44E6002104A8FFF7B6
:1095B000C1F892E7D8F8682012B17846FEF7F0FCBF
:1095C000354A0098126890476C2202FB0BA3019366
:1095D000986600283FF47DAF2C2204A9404616F07F
:1095E00050FC0A9A019BBDF814E0BDF80010A3F8E6
:1095F0004610C2F30C0000217045996424D2A2F5F4
:10960000005171440A1A6C2101FB0BAA234B244917
:10961000CAF834306FF001004FF0000ECAF828008D
:10962000CAF81820CAF85C80CAF83C8001208AF881
:1096300064E0CAF8541001F04FFC02238AF8443069
:10964000B4E5BDF8242073E57244121ADBE708F193
:109650004C0002F0F9FE98E7A3F500523244531A89
:1096600079E77846FEF79CFC5EE7D8F8481040465C
:10967000FFF760F83B4604464246B8F84610D8F873
:109680006800FFF737FB002C7FF4DDAD44E700BF37
:1096900068390020243900201C390020A5890200E7
:1096A0000588020084390020283900206C39002008
:1096B000002843D0F0B504698DB0002C3BD0C369BD
:1096C000002B38D08569002D35D05A788DF80720C9
:1096D0001A78017B0A93022982F001038DF8063083
:1096E0002ED0002930D10423C27A868A19460B274E
:1096F0008DF80510002A30D1BE422EDC08293CD05E
:10970000034603C81F898DF8042004AA82E80300D9
:109710009A7A1B6A099500213846ADF818708DF8C1
:109720001B108DF81A200B9301F094FF012826D00E
:1097300010200DB0F0BD0E200DB0F0BD0E20704712
:10974000194B9B7D002BCED00823C27A868A1946FE
:1097500007278DF80510002ACED03344134A0B3367
:1097600082FB0312DB43DB0FC3EB620300228DF8A5
:109770000A208DF80B300122C2E70720DCE79DF8B4
:109780001030002BD4D0022B09D09DF91A30002BB9
:10979000F3DB3246214601A8FEF78AFECCE7059BA3
:1097A000002BF2D1C4E700BF6C390020ABAAAA2A73
:1097B00078B1F0B544688DB044B1856935B1037CAA
:1097C00013F0FD0F07D110200DB0F0BD0E200DB02D
:1097D000F0BD0E20704703781A0601D50720F3E785
:1097E00086688DF806300B2E4FF000030A9301D8DF
:1097F000077B47B1F31DDB08013B00228DF80B30DE
:109800008DF80A200127034600F110028C4692E8E9
:109810000300DA8993F81CE08DF8047004AB83E848
:1098200003000021012310460995CDF82CC0ADF8A6
:1098300018208DF81AE08DF805108DF81B3001F016
:1098400009FF0128BFD19DF81030002BBBD0022B9F
:1098500009D09DF91A30002BC0DB3246214601A801
:10986000FEF726FEB0E7059B002BF2D1ABE700BF69
:1098700049B1A0F59670072859D8DFE800F00B151C
:10988000212C38444C060E2070474B68012B4AD9D6
:10989000072070474A68274B274913448B42F7D863
:1098A000264B00201A6070474A682549A2F51233FA
:1098B000A3F5F8738B42EBD8204B00205A60704719
:1098C0004A682049A2F54343503B8B42E0D81B4BEA
:1098D00000209A6070474A681B49A2F54333A3F5FC
:1098E000A0738B42D4D8154B0020DA6070474A68C9
:1098F0001549A2F54333A3F5A0738B42C8D80F4B8B
:1099000000201A6170474B689A1EFD2AC0D80B4A86
:109910000020137570474B685A1E7E2AB8D8074A34
:10992000002053757047054A002093757047052045
:10993000704700BF806967FF80778E066C39002012
:10994000904C960030D397004089950089B138B586
:109950000D46044608220021284616F09DFAA4F57B
:10996000967007282FD8DFE800F00B10151A1F2477
:1099700029060E207047154B9B7D6B60002038BD7B
:10998000124B1B686B60002038BD104B5B686B602E
:10999000002038BD0D4B9B686B60002038BD0B4B21
:1099A000DB686B60002038BD084B1B696B600020D2
:1099B00038BD064B1B7D6B60002038BD034B5B7DC3
:1099C0006B60002038BD052038BD00BF6C39002019
:1099D00010B370B4144E0546306810B1042070BC4A
:1099E000704799B16B68EBB12B781A0618D4ABB1FC
:1099F0002B46024607E0DC68A4B11C7A14F0800F05
:109A00000ED1083354B101329142F4D1074B0122F7
:109A10001D6059603260E2E70E2070470F20DEE7DC
:109A20000B20DCE70E20DAE7103900201439002083
:109A3000F8B5054648B3174F3C6894B1164E01235C
:109A4000337001E024684CB12379002BFAD154F82B
:109A5000043C284698472468002CF5D13378022B23
:109A600000D0F8BD396869B10A4D01E021464CB11A
:109A70000B790C68002BF9D0284604F09BFA21469C
:109A8000002CF5D100233370F8BD7846FEF788FA34
:109A9000D1E700BF383B0020343B002010B504461E
:109AA00038B100232372211D0448BDE8104004F0A2
:109AB00053BA7846FEF774FAF3E700BF383B00204C
:109AC00010B5044678B10A4A1378013B012B05D939
:109AD000211D0848BDE8104004F06CBA02210123A2
:109AE0001170237210BD7846FEF75AFAEBE700BFFB
:109AF000343B0020383B002070B5054616460C4626
:109B0000002949D000284CD0B4F1005F34D94FF07F
:109B10008053D3F80C3103F50023B4EB832F2ED2FE
:109B2000731E2344B3F1005F16D94FF08052D2F870
:109B30000C2102F50022B3EB822F10D2042E02D8A2
:109B40007846FEF72DFA0023321F2E80AC606B8022
:109B5000AB802280A37070BDB3F5000F08D94FF021
:109B60008052D2F80C2102F50052B3EB822FE5D3DC
:109B70007846FEF715FAE1E7B4F5000F08D94FF083
:109B80008053D3F80C3103F50053B4EB832FC7D3C4
:109B90007846FEF705FAC3E77846FEF701FA002D8E
:109BA000F6D17846FEF7FCF9AEE700BF38B50446BB
:109BB000002830D0A36862881A449278012A25D000
:109BC000A2881344EFF3108172B69A78032A07D063
:109BD000A26800239370C4F8023001B962B638BDA0
:109BE000A06825881B1A9AB2043D825A073222F0D7
:109BF000030213449BB2AB428CBF00221A461044AE
:109C000088BF1346002263808270E6E77846FEF73D
:109C1000C7F9A368D4E77846FEF7C2F9CAE700BFE0
:109C200070B50E461546044610B32EB36288A3687D
:109C300013449B78012B17D00DB9092070BD2288E1
:109C4000131F9BB29D42F8D86188A088EB1D23F0BA
:109C5000030381429BB213D31DD9521A9A4212D2E6
:109C6000834222D9042070BD7846FEF799F9E3E7D4
:109C70007846FEF795F9D8E77846FEF791F9D5E7EB
:109C8000401A8342EEDCA2685318555201249C709E
:109C90003360002070BDA26810448378002BE1D1AE
:109CA00093701946C4F80230EDE7032A03D9A3687C
:109CB0000B4404229A7000216180E4E770B50D46E0
:109CC0001646044600282FD0002D31D0AB78012B4A
:109CD00002D07846FEF764F92B88B3421BD3FEB15D
:109CE00002232E80AB706388A1682088CA5A07328D
:109CF00022F0030213449BB2021F934288BF00224A
:109D0000A0888CBF13461A469842638002D0114443
:109D100000238B7070BD7846FEF742F9002EDFD12C
:109D20007846FEF73DF9DBE77846FEF739F9CBE7F1
:109D30007846FEF735F9C9E710B5044682B0B8B1E8
:109D4000E1B1A288A36813449A78022A0AD0032AB0
:109D500002D0052002B010BD7846FEF721F90020A0
:109D600002B010BD032200209A700B6002B010BD3B
:109D700001917846FEF714F90199E1E701917846DF
:109D8000FEF70EF90199DCE710B5044648B1A28848
:109D9000A36813449878A0F10200B0FA80F040095B
:109DA00010BD7846FEF7FCF8F1E700BF10B5044699
:109DB000E0B1A168A3880B449878032810D12488C7
:109DC000043C5A1A93B2CB5A073323F003031344CB
:109DD0009BB2A34288BF00230B4498780328F0D09D
:109DE000A0F10200B0FA80F0400910BD7846FEF7FD
:109DF000D7F8DEE738B50D460446002834D0002DEC
:109E000039D0AB78012B24D0032B1DD1A288A368B5
:109E100013449D4202D07846FEF7C2F80020A87095
:109E2000A388A1682588CA5A073222F00302134486
:109E30009BB22A1F934294BF184603460144A38055
:109E40008B78042B14D038BD7846BDE83840FEF737
:109E5000A7B86288A36813449D4202D07846FEF7F3
:109E60009FF80023AB7038BD7846FEF799F8C6E737
:109E70000023A38038BD7846FEF792F8C1E700BF03
:109E800010B50A4B0A4ADB6884B002240193694684
:109E90004FF4805301208DF80040029301F00AFB3B
:109EA000B0FA80F0400904B010BD00BF3C3B002078
:109EB000583B002010B50A4B0A4A1B6884B00224A4
:109EC000019369464FF4805301208DF800400293BE
:109ED00001F0F0FAB0FA80F0400904B010BD00BF04
:109EE0005C3B0020583B002070B50D4B0D4D1B68AE
:109EF000E9680D4A84B001240191043340F6FC76F0
:109F00002046694603938DF80040029601F0D2FA8C
:109F100018B920462C7604B070BD002004B070BD86
:109F20005C3B00203C3B0020583B002030B50A4BF6
:109F30000A4D1B680A4A85B0042401930123184680
:109F400069468DF800300395029401F0B3FAB0FA37
:109F500080F0400905B030BD5C3B0020483B00204C
:109F6000583B0020F0B5124E124FF1683B680D7857
:109F7000114A85B0012404330391204669460295B5
:109F800001938DF8004001F095FA68B93A68F368DA
:109F900005F0FC050435154475611A787076134494
:109FA0002046336105B0F0BD002005B0F0BD00BF14
:109FB0003C3B00205C3B0020583B002070B5174D17
:109FC000EB68187884B003F5805118444FF6FF729F
:109FD00005F0F0FAF0B1EB681A781344984219D002
:109FE0006E7E0F490F4B01900124002E08BF0B46D7
:109FF0000D4A03930426204669468DF800400296D8
:10A0000001F058FA18B920462C7604B070BD002033
:10A0100004B070BD012004B070BD00BF3C3B002007
:10A02000FC05040000060400583B0020F0B5144D68
:10A03000EB6818795A79801A00F57F2000F6FF70D6
:10A04000040385B005D003F58053EB60032005B011
:10A05000F0BD0C4B0C4F1B680193012604230B4AE7
:10A060008DF80060304669460397029301F022FAAA
:10A0700018B902202E7605B0F0BD2046E7E700BFF4
:10A080003C3B00205C3B0020603B0020583B002014
:10A0900010B50E4CE368187803F58051184400227F
:10A0A00005F088FA08B1012010BDE26813795179F2
:10A0B0005B1A03F57F2303F6FF731B0301D1022014
:10A0C00010BD02F58052E260032010BD3C3B002031
:10A0D00070B5254CE368002B42D0237E002B34D191
:10A0E0006368092B37D8214D55F82330984702284B
:10A0F0004FF0000619D0032800F0FD0319D0012805
:10A1000002D0012B08D070BD63680133092B636056
:10A1100002D97846FDF744FF237E002BF3D1636814
:10A1200055F8233098470228E5D1217E19B12070D7
:10A1300070BD6660F0E7A4680B481C2215F0ACFE09
:10A140002046BDE8704004F0E7BE7846FDF728FFE2
:10A150006368092BC7D97846FDF722FF6368C2E719
:10A160007846FDF71DFFB8E73C3B00207C05040066
:10A170000B78032B04D0104B1A78012A16D07047A5
:10A180000D4803780022012B027612D0022BF6D163
:10A190000B78032BF3D110B5846811461C2215F0FF
:10A1A0007BFE2046BDE8104004F0B6BE1B7E002BAF
:10A1B000E5D1FFF78DBF00BF3C3B00202DE9F04FFC
:10A1C0004F4BDB681A7993F805A0511E8A4585B07C
:10A1D0005AD003F58051DFF838810D78D8F8004067
:10A1E0000D44A2EB0A0A6A882179501E0F4680B2FC
:10A1F00047F6FE61884203EB0A3A51D8231D3946DF
:10A200001944404C0E46D8F80010304601F58051F4
:10A2100005F0D0F90646002836D03B4F03970123BE
:10A22000374F3A4A01954FF0040E184669463B767F
:10A230008DF80030CDF808E001F03CF9002858D145
:10A24000AB4647F6FE6909E09A459B461CD9AB42EE
:10A250001AD95A88501E80B248451FD9BBF8003021
:10A26000B3B10BEB83030BEA040233EA040102F5FA
:10A27000805204D0BBF80200B0F5FE4FE4D1137851
:10A2800013449A459B46E2D8012005B0BDE8F08F03
:10A290007846FDF785FEBBF80030E2E71D46B2E7E1
:10A2A000DFF860B00E46A94609E09A459946EBD919
:10A2B0009D42E9D25A88501E80B2B0421DD9B9F8E9
:10A2C000003083B109EB830309EA0B0233EA0B0187
:10A2D00002F5805204D0B9F80200B0F5FE4FE4D187
:10A2E00013781344E1E77846FDF75AFEB9F80030D9
:10A2F000E8E7002005B0BDE8F08F1D467EE700BF0F
:10A300003C3B002000F0FFFFF8050400583B002014
:10A310005C3B00202DE9F04F6C4F3B6987B0002B70
:10A3200000F0CB807B69002B00F0CB807B7E002B84
:10A330003BD1674ED7F810A0F868BAF802307C69B4
:10A3400090F805B00179013B04EA06029BB247F69A
:10A35000FE65A1EB0B01121BAB4200EB013B02F5CA
:10A3600080582BD954460AE09B451C461BD99A4578
:10A3700019D25988013989B2A94240F291802388C3
:10A38000BBB104EB830304EA060133EA060201F5DC
:10A39000805103D06088B0F5FE4FE5D10B780B44B7
:10A3A0009B451C46E3D801237B76012007B0BDE81E
:10A3B000F08F7846FDF7F4FD2388E2E7DA4571D2A5
:10A3C000BAF8002093009845EFD95546544699466F
:10A3D00047F6FE61EAB1234433EA060224D06088DE
:10A3E000B0F5FE4F20D01C465C4524D22288930055
:10A3F00003EB090CE04530D984EA0A0030422546D7
:10A400002BD16088013880B2884226D8E146002AE4
:10A41000E1D101917846FDF7C3FD228801999300AF
:10A42000234433EA0602DAD1354005F580552C780D
:10A430002C445C45DAD3B9F1000F19D10123002C6B
:10A44000B1D0618847F6FF729142ACD07A7E002A83
:10A45000ABD1002B3FF46EAFA7E7B9F1000F07D1E6
:10A46000628847F6FF739A429FD101237B769CE76F
:10A4700001257B69174ACDF814A0284602A9CDF81A
:10A4800010908DF80850039301F014F888B97B6997
:10A4900029F003094B447B613CB13C610023CEE7CA
:10A4A0009A468DE754460123C9E77846FDF778FDC3
:10A4B000F3E7002007B0BDE8F08F7846FDF770FDA8
:10A4C00030E77846FDF76CFD30E700BF3C3B0020ED
:10A4D00000F0FFFF583B002038B54FF010235A69B9
:10A4E000013201D05A6992B94FF080525169136913
:10A4F00003FB01F3A3F580530F491A680B60531E49
:10A50000033302D8C2F30B032BB1002038BD5B69C3
:10A51000A3F58053EEE7094D0949EA6001240522BD
:10A5200020462B766B76AB606A602C7000F0B2FF31
:10A53000FFF7CEFD204638BD5C3B00203C3B0020B1
:10A5400071A10200024B1878003018BF012070473B
:10A550003C3B002070B50F4C23780546B3B92B78EF
:10A56000032B02D07846FDF71BFD0122EE680A4955
:10A57000A56000231046E660227063602376637650
:10A5800000F088FFBDE87040FFF7A2BD7846FDF7F8
:10A5900007FDE4E73C3B002071A10200014B186875
:10A5A000704700BF5C3B002010B50446A0B1636853
:10A5B0006BB123685BB1A3684BB15A1E1A4202D03B
:10A5C0007846FDF7EDFC0023E360236110BD78467B
:10A5D000FDF7E6FCA368F0E77846FDF7E1FCE6E767
:10A5E00070B528B121B183682BB90925284670BD03
:10A5F0000E25284670BDEFF3108572B68368026998
:10A60000C6681A44B24203D185B962B60425EDE7A3
:10A61000044605C8013B334002FB030015F031FC42
:10A62000E3680133E3601DB962B6DFE70425DDE7C7
:10A630000025DBE770B5E8B1836813B90925284622
:10A6400070BDEFF3108572B60369C268934214D0EF
:10A650000446084641B194E84600013E334002FBFF
:10A66000031115F00EFC2369013323614DB962B665
:10A67000284670BD0E25284670BD25B962B6052551
:10A68000DDE70025DBE70525D9E700BFC0F30B03B5
:10A690000BB11020704709B909207047114A01F623
:10A6A000FF710223090BC2F80435D2F80034002BE5
:10A6B000FBD061B10B4A00EB0131C2F80805D2F8BA
:10A6C0000034002BFBD000F580508842F5D1054ABC
:10A6D0000023C2F80435D2F80034002BFBD0002050
:10A6E000704700BF00E0014040EA01039B0701D032
:10A6F000102070470AB9092070479307FBD110B4A6
:10A70000134C01239208C4F80435D4F80034002B0C
:10A71000FBD082B10E4C043900EB820251F8043FA9
:10A72000B3F1FF3F04D00360D4F80034002BFBD01A
:10A7300004309042F2D1064A0023C2F80435D2F820
:10A740000034002BFBD000205DF8044B704700BFA5
:10A7500000E0014010B5104C4FF48052002120461B
:10A7600015F09AFB0D4A04F13003146004F57F6084
:10A770002821002223F8301C23F82E2C43F82C3CEF
:10A7800030338342F6D13823A4F8C22FC4F8C42F43
:10A79000A4F8C03F10BD00BF643B0020644B002004
:10A7A00008B508220221094804F0C8F840B1084A57
:10A7B00091684160127B0272BDE8084004F002B962
:10A7C0000448BDE8084004F07DBB00BF704B00208A
:10A7D000B84B0020B82D002010B5044618B1234610
:10A7E000BDE8104018477846FDF7DAFB2346BDE880
:10A7F0001040184710B586B018220021684615F0A1
:10A800004BFB0023029304F0B3FB0122A0F580541C
:10A81000064B0748009469460192039304F04AF9F5
:10A8200010B1044804F04EFB06B010BD39A8020078
:10A83000704B0020C82D002030B50C468DB022B9D9
:10A840004B88012B19D00DB030BD032A02D07846B9
:10A85000FDF7A6FB01A82C22002115F01DFB0D4BD6
:10A860000394D9681A690591102301A806928DF8FE
:10A870000430FFF7DDF80DB030BD074D2B7813B96C
:10A880007846FDF78DFB054B62685A6000232B70FC
:10A890000DB030BD704B0020CC4B0020B84B0020D9
:10A8A00038B50E4D2B7833B90D4B5C6804F5005468
:10A8B000B4F1807F00D938BD04220121094804F099
:10A8C0003DF830B1012344602B70BDE8384004F0FE
:10A8D00079B80548BDE8384004F0F4BACC4B002004
:10A8E000B84B0020704B0020A82D002038B5012166
:10A8F000174804F093F820B90221154804F08EF8A7
:10A90000D0B1144804F0DEFA134C237803B138BDFB
:10A91000124B5D6805F50055B5F1807FF7D804222C
:10A9200001210B4804F00AF860B10123456023704F
:10A93000BDE8384004F046B801461422074815F037
:10A94000ABFAE1E70648BDE8384004F0BBBA00BF07
:10A95000704B0020D82D0020CC4B0020B84B00209D
:10A96000A82D0020F0B5554C8DB002F0FDFA657BA6
:10A97000002D2FD0A37B002B35D1228A41F2826398
:10A980009A422CD9227B00236373002A31D0012AFA
:10A990003DD10CA80226A26800F82C6D0492236019
:10A9A0006360237323828DF808300393FFF740F828
:10A9B00031460822424803F0C1FF002872D0A26845
:10A9C0004260227B027203F0FDFF3E4E3378002B83
:10A9D00056D01D4602F0EAFA28460DB0F0BD3A4BBB
:10A9E0001B78002BCED102F0E1FA002528460DB0ED
:10A9F000F0BD02F0B9FA237B8BB102F0D7FA7846AA
:10AA0000FDF7CEFA02F0D2FA28460DB0F0BD784636
:10AA1000FDF7C6FA02F0CAFA28460DB0F0BDA37BD6
:10AA2000002BEAD1228A41F282639A4203D8264B54
:10AA30001B78002BE1D0A3682148013301270026B1
:10AA400008220221A3602773268203F077FF0346C2
:10AA500080B3A2685A60227B1A7203F0B3FF0CA87D
:10AA6000022300F82C3DA368227B8DF80820013BCF
:10AA7000002204930392FEF7DBFF02F097FAA9E7A6
:10AA8000646804F50054B4F1807FA3D80422012146
:10AA90000B4803F053FF48B101234460337003F0C7
:10AAA00091FF97E7094804F00DFA8EE7084804F093
:10AAB00009FA8FE7054804F005FAD0E7B84B002003
:10AAC000704B0020CC4B0020CD4B0020B82D002037
:10AAD000A82D00200378042B00D0704743681B7812
:10AAE000002BFAD0F0B5374C4569227B017E8DB042
:10AAF0000346002A36D1628A002A3BD10129A16887
:10AB000043D14A1C954239D92A318D4228D8A67B97
:10AB100036BBDFF8C4E02C489F682660082202217B
:10AB2000A560666066732673C4F810E003F006FF44
:10AB300000283FD0A2684260227B027203F042FFED
:10AB4000224D2B7823B30CA8022300F82C3D10379C
:10AB5000227BA36803978DF808200493FEF768FF13
:10AB60000DB0F0BD012AFBD10129F9D0A3689D42A7
:10AB7000F6D105E00129F3D1A2680132AA42EFD152
:10AB800001236373FFF7EEFEEAE78D42BCD8E7E7E7
:10AB9000666806F50056B6F1807FD4D804220121FC
:10ABA000094803F0CBFE48B1012346602B7003F047
:10ABB00009FFC8E7064804F085F9C1E7054804F035
:10ABC00081F9C0E7B84B0020704B0020CC4B00202F
:10ABD000B82D0020A82D00200000062D10B5194C1E
:10ABE000227BD2B1012A0AD07846FDF7D9F9238A0F
:10ABF00001332382638A7BB1013B638210BD238AC8
:10AC000041F282618B4215D942F2B0118B4215D9C3
:10AC10006273FFF7A7FEEDE710BD238A41F282625F
:10AC2000934202D9FFF79EFEE4E7074A1278002A12
:10AC3000F8D1DDE7044A1278002AD9D0FFF792FE56
:10AC4000238AD5E7B84B0020CD4B002070B504F027
:10AC500053F940B902F076FA0028F8D020BF04F08A
:10AC60004BF90028F6D002F07FF90022114638484F
:10AC700003F0C0FD00284FD00026354C354608E0D3
:10AC8000022B00D1051D02460021204603F0B2FD33
:10AC900050B14388012BF3D1061D02460021204606
:10ACA00003F0A8FD0028F4D1002D35D0002E33D0BC
:10ACB000284C2B68A3602B792373B54209D83368DD
:10ACC0002360254D63602A78EAB1BDE8704002F048
:10ACD0006DB92B79002BF2D11F4D20602B7860606D
:10ACE000002BF2D14FF4005404220121184803F044
:10ACF00025FE48B3446001232B7003F063FEBDE8DA
:10AD0000704002F053B903F50054B4F1807FEBD9E1
:10AD1000BDE8704002F04AB90E4C0D4800230822ED
:10AD200002212360A360237303F008FE38B1A268F8
:10AD30004260227B027203F045FE2368C1E70748A8
:10AD400004F0C0F82368BCE7054804F0BBF8BCE792
:10AD5000704B0020B84B0020CC4B0020B82D0020B9
:10AD6000A82D002008B504F003F9A0F5805008BD17
:10AD700070B5142286B000211848194C194E15F0F0
:10AD80008BF801F087FC184B184960601848194A85
:10AD9000A060002518461A600D70E66025616561A7
:10ADA00000F0AEFD204601F01DFB29461822684642
:10ADB00015F072F8029504F0DBF80122A0F580543A
:10ADC0000D4B0E48009469460192039303F072FE06
:10ADD00010B10B4804F076F806B070BDB84B0020F7
:10ADE000944B002000879303AC4B0020CD4B0020F8
:10ADF000DDAB0200D5AA020039A80200704B00208A
:10AE0000C82D0020F8B52E4C94E80C009A4216D2BA
:10AE10000646257B2B492C48012D18BF014691423F
:10AE200026D9A3F1400191422BD9EFF3108072B6DD
:10AE300023685A1C2260336030B962B6F8BD234DD6
:10AE40002A781AB10F20F8BD0020F8BD03F5005490
:10AE5000B4F1807FF6D8042201211D4803F06EFD75
:10AE600020B3446001232B7003F0ACFD0F20F8BD2C
:10AE700001236373FFF776FD0028D6D194E80C0018
:10AE8000CFE7124F3A78002ACFD103F50055B5F13C
:10AE9000807FCAD8042201210D4803F04FFD50B134
:10AEA000012345603B7003F08DFDBEE7094804F0C7
:10AEB00009F80F20F8BD074804F004F8B5E700BF13
:10AEC000B84B002000E0FF00FFFF7F00CC4B0020CC
:10AED000704B0020A82D0020002855D170B55B4C88
:10AEE00023688CB0002B57D0013B23600BB10CB012
:10AEF00070BD574CA37302F037F8637B002B3FD033
:10AF0000A37B002B3CD1228A41F282639A4250D922
:10AF1000227B00236373002A50D0012A45D10CA85C
:10AF20000225A26800F82C5D0492236063602373FD
:10AF300023828DF808300393FEF77AFD2946082214
:10AF4000444803F0FBFC002873D0A2684260227BD7
:10AF5000027203F037FD404D2B788BB9646804F51D
:10AF60000054B4F1807F0BD804220121394803F04A
:10AF7000E5FC002861D0012344602B7003F022FD22
:10AF800002F014F80CB070BD304A3149136801204A
:10AF900003441360887370477846FDF701F823680F
:10AFA000013B2360002BA2D1A3E77846FCF7F8FF12
:10AFB000E6E72A4B1B78002BAAD1E1E701F0D4FF8A
:10AFC000237B2BB101F0F2FF7846FCF7E9FFD7E7CE
:10AFD000A37B002BF6D1228A41F282639A4203D8E6
:10AFE0001E4B1B78002BEDD0A3681A4801330126B5
:10AFF000002508220221A3602673258203F09EFC0F
:10B000000346F0B1A2685A60227B1A7203F0DAFCA0
:10B010000CA8022300F82C3DA368227B8DF80820A1
:10B02000013B002204930392FEF702FD01F0BEFFF4
:10B03000A6E70B4803F046FF8DE70A4803F042FFFE
:10B040009EE7074803F03EFFE2E700BF6C4B00209D
:10B05000B84B0020704B0020CC4B0020CD4B002083
:10B06000B82D0020A82D002010B58CB00CAB032407
:10B0700003F82C4DADF8080018468DF81020039108
:10B08000FEF7D6FC0CB010BD014B9868704700BFAE
:10B09000B84B0020034B1A7B9868012A08BF00F1C7
:10B0A000FF307047B84B0020044B9B685840C207E4
:10B0B00048BF03F1FF331846704700BFB84B00206C
:10B0C000014B187B704700BFB84B0020F8B51C4BF4
:10B0D0001A780AB10820F8BD1A4D02460C46AA603B
:10B0E000012619482C73082202211E7003F026FC49
:10B0F00008B3AA6842602A7B027203F063FC134F14
:10B100003E78002028606860002EE4D104220121EE
:10B110000D4803F013FC044640B14FF40053436064
:10B1200001233B7003F04EFC3046F8BD084803F0A5
:10B13000C9FE2046F8BD074803F0C4FEDFE700BFA4
:10B14000684B0020B84B0020704B0020CC4B0020F7
:10B15000A82D0020B82D00202DE9F843204CDFF861
:10B1600084904FF000080221204602F015FE5FFA9D
:10B1700088F70546D0B1002654F8043C29463846E5
:10B1800013B134F80C2C984734F80C3C01330221ED
:10B19000204624F80C3C02F029FE0221204602F051
:10B1A000FBFD013605460028E6D14EB908F101083D
:10B1B000B8F1030F04F1BC04D5D10120BDE8F88338
:10B1C0000146204602F038FE0828EFD154F8043C2E
:10B1D000002BEBD02A46384649469847E6E700BFA1
:10B1E000E44B0020A40504002DE9F04F804B1B78B0
:10B1F00083B00D46002B40F0E18001F10C030646C0
:10B20000012118460193D5F8A87002F0C5FD8346C8
:10B21000002800F0E880DFF8EC91DFF8EC81DFF83F
:10B22000E0A1A7F5FA7700242EE0A8FB04346A68B1
:10B23000DBF80810240C2403891A8C4228BF0C4622
:10B24000002C00F0B580DBF8041022F00300084465
:10B250002146FFF71BFA002877D169680C446C601F
:10B26000DBF80820A2421ED001F014FA9BF800205F
:10B27000841B48BF341A012A00F09180022A68D149
:10B280005246224497426BD39BF80020012AA7EB39
:10B29000040440D0022AC8D07846FCF781FE6C68CE
:10B2A0000022A242E0D10AF01DFA019E012130469F
:10B2B00002F09CFD4F4B002418686C6085F8B84084
:10B2C00001F0B4FE3046012102F066FD00287AD07C
:10B2D000494BC5F8A040C5F89C3003786968012B3C
:10B2E0004FD0022B72D07846FCF75AFE4FF4FA7317
:10B2F0000122C5F8A830C5F8AC5085F8B82005F192
:10B300009C000AF0B1F900285DD0784603B0BDE892
:10B31000F04FFCF745BEA9FB04346A68DBF808105F
:10B32000E409A400891A8C4228BF0C46002C39D0AD
:10B33000DBF80C10DBF8043022F003000144224655
:10B340001844FFF7D1F9002887D07846FCF728FE8B
:10B3500083E77846FCF724FE00222244974293D2EA
:10B360000AF0C0F90198012102F016FD58B3224BF2
:10B37000C5F89C300023C5F8A03003786968012B1C
:10B38000AFD183681D485B1A9A084FF4A97303FB79
:10B3900002F303F5FA73834228BF0346A8E74FF48C
:10B3A000A9726EE700927846FCF7FAFD009ABFE7B3
:10B3B00000927846FCF7F4FD009A44E70AF092F90F
:10B3C000002385F8B83003B0BDE8F08F82680C4BDD
:10B3D0000A48521A120B03FB02F303F5FA73834275
:10B3E00028BF034684E77846FCF7DAFD13E700BF81
:10B3F000D44B0020D04B0020E9B10200A086010010
:10B40000645E0100EB5DF260B77609BBF8B51E48DB
:10B410001E4C01F0EBFD1E4B04F11C020827102608
:10B420000325186004F1180304F10C006261236124
:10B43000A7736673257302F07DFC04F1D80204F152
:10B44000D40304F1C800C4F8D020C4F8CC3084F888
:10B45000CA7084F8C96084F8C85002F06BFC04F527
:10B46000CA7204F5C87304F5C27084F8867184F852
:10B47000856184F88451C4F88C21C4F88831BDE812
:10B48000F84002F057BC00BF59B10200D84B002071
:10B49000D04B0020022838B504460D4602D9784624
:10B4A000FCF77EFD024BBC2202FB0434A56038BDD4
:10B4B000D84B002002282DE9F84F07460C4692464B
:10B4C0004FD8002C00F0A3802378012B4FD0022B03
:10B4D0003BD07846FCF764FDEFF3108972B6BC25CB
:10B4E00005FB07F5DFF8688105F10C064644304698
:10B4F000002102F051FC8346002836D0002130465E
:10B5000002F074FC21465846102214F0BAFCBAF13D
:10B51000000F04D008EB05035B88AAF80030BC24B8
:10B5200004FB0784638894F8B820013363802AB948
:10B53000434B93F800A0BAF1000F30D00020B9F1CE
:10B54000000F00D162B6BDE8F88F6368C3F30B0348
:10B55000002B58D1A368C3F30B028AB9002BBBD1CF
:10B56000B7E77846FCF71CFDABE70420E7E7636824
:10B57000980710D1E368990709D1A3689A07EDD01D
:10B580007846FCF70DFDA368002BA5D1A1E778460E
:10B59000FCF706FDF1E77846FCF702FDEAE73046E6
:10B5A000012102F0F9FB08EB05060028C6D0254B67
:10B5B000C4F8A0A0C4F89C3003786168012B2AD09D
:10B5C000022B36D18268204B521A120B03FB02F376
:10B5D0001E4A03F5FA73934228BF1346BC2202FBAE
:10B5E000078705F19C0001224044C7F8A830C7F83E
:10B5F000AC6087F8B8200AF037F800289ED078466B
:10B60000FCF7CEFC9AE77846FCF7CAFCA2E778463E
:10B61000FCF7C6FC58E783680C485B1A9A084FF49D
:10B62000A97303FB02F303F5FA73834228BF0346B1
:10B63000D4E77846FCF7B4FC4FF4FA73CEE700BFCA
:10B64000D44B0020E9B10200645E0100A086010035
:10B65000D84B002010B1800B014B185C704700BF25
:10B66000B405040012DF704713786BB1042B06D1C8
:10B6700010F8013C162B41D02A2B52D0704710F8FD
:10B68000013C162B3AD0704700B510F8013C517DB3
:10B69000163B152B11D8DFE803F00B10101010101B
:10B6A00010101010101010101010101010271C1275
:10B6B00001884FF6E46399422BD05DF804FB022920
:10B6C000FBD110F8021C5DF804EB0139C9B203F09C
:10B6D0004BBF022901D00729EFD110F8021C5DF8F9
:10B6E00004EB013902F072B80229E6D110F8021C0D
:10B6F0005DF804EB0139C9B210F00ABC01884FF6BD
:10B70000E4639942BAD110F8021C02300339FCF705
:10B7100045BC10F8021C5DF804EB03390230FCF75D
:10B720003DBC10F8021C013902F050B800B58DB0D4
:10B730002C22002101A814F0AFFB0D2301A88DF8E5
:10B740000430FEF775F90DB05DF804FB70B58AB0F2
:10B750000AF0E0FD00282FD000238DF810300646B7
:10B7600004460FCE05AD0FC533682B60627D052AF8
:10B770000BD9207D00F00F03072B06D01846063AA0
:10B7800004AB04F11D0109F0C5FA114B196881B130
:10B79000227D637DC2F3030204A8062B8DF80420EA
:10B7A000039010D80022134602928DF8053001A8AC
:10B7B000884720460AF0EAFD0AF008FE80F0010002
:10B7C000C0B20AB070BD063BDBB204F11D02EBE76C
:10B7D000104E0020F0B5324D2B7883B01BB10824F9
:10B7E000204603B0F0BD002849D0077A07F0F703E0
:10B7F000072B03D00724204603B0F0BD0646C068DF
:10B8000000283ED0FCF7DEFB0DF10700FFF72AFF12
:10B8100004460028E4D19DF80730012B18BF02240C
:10B82000DED1FCF7F1FB00F0CBFD384601F04EFB1A
:10B83000F07800F0EBF801F089FA09F0E5FE19481C
:10B840000AF01EFE09F0E6FBFFF7E0FD02F044FF00
:10B85000154803F08FFB04F0A1FC304601F0B2FE66
:10B860003046FDF77DFB04F06FF93046FEF772FFBE
:10B87000FCF794FB40B1062806D00446B0E70E243E
:10B88000AEE7FCF7A7FBBFE700F0F6FF074809F0BB
:10B8900011FA074A0021012311602B70A0E700BFB5
:10B8A0000D4E00204DB702002DB70200E82D0020FC
:10B8B000104E00200F4B1B780BB90820704710B5B5
:10B8C0000D4C237882B013B1082002B010BD01F0F6
:10B8D00063FA50B909F0BAFE0028F6D101900AF0D7
:10B8E000EFFC012323700198EFE77846FCF758FB43
:10B8F000F0E700BF0D4E00200C4E0020FDF7D8BE33
:10B90000FEF7CCB808B501F0FFF9002008BD00BF74
:10B91000704700BF044B18680130B0F1704F08BF8A
:10B9200001201860704700BF144E002010B5044677
:10B9300018B100232360636010BD7846FCF730FB2C
:10B9400000232360636010BD10B5044682B070B15F
:10B95000A9B100234B60EFF3108372B6226862B185
:10B9600062685160616003B962B602B010BD0191B6
:10B970007846FCF715FB0199EAE72160F2E70191AF
:10B980007846FCF70DFB0199E3E700BF10B50446CC
:10B9900068B1EFF3108272B6206828B14368236063
:10B9A00013B102B962B610BD00236360F9E77846AF
:10B9B000FCF7F6FAEDE700BF10B5044608B12068C1
:10B9C00010BD7846FCF7ECFA206810BD35DF7047F3
:10B9D0003CDF704708B503464FF0FF30FFF7F6FF36
:10B9E0004FF0FF311846FFF7F3FFBFF34F8F0549C4
:10B9F000054BCA6802F4E0621343CB60BFF34F8F7C
:10BA000000BFFDE700ED00E00400FA0507289ABF3B
:10BA1000024B53F82000FA20704700BFB80504001D
:10BA200046DF70472DE9F04F02F10F0693B017463D
:10BA30000C4636110146102206A8019307F00F07A5
:10BA400014F01FFA36B1002F40F007820123009353
:10BA5000984602E000964FF00208102200210AA842
:10BA600014F01AFA06A8FFF7DBFF4FF0010A06E010
:10BA7000F0458DF84730C0F086804FF0020A9DF8FF
:10BA80003A909DF839E09DF83B309DF83C009DF8D8
:10BA90003DC09DF83EB09DF83F104FEAD91545EAEC
:10BAA0004E058DF83950DD0945EA49058DF83A50C3
:10BAB000C50945EA43058DF83B504FEADC1545EAD8
:10BAC00040058DF83C504FEADB1545EA4C059DF8E2
:10BAD00040908DF83D50CD0945EA4B059DF8413029
