:020000022000DC
:1060000000FD0020497702007177020073770200DB
:1060100075770200777702007977020000000000B0
:106020000000000000000000000000007B7702007C
:106030007D770200000000007F7702008177020078
:106040008377020083770200837702008377020060
:106050008377020083770200718602008377020053
:10606000837702008377020039630300837702009D
:106070008377020083770200837702008377020030
:1060800083770200ED7702002DDB020083770200A8
:106090008D78020083770200B983020083770200C3
:1060A0008377020083770200837702008377020000
:1060B00083770200837702000000000000000000E8
:1060C00083770200837702008377020083770200E0
:1060D00083770200837702008377020000000000CC
:1060E00000000000000000000000000000000000B0
:1060F00000000000000000000000000000000000A0
:10610000000000000000000000000000000000008F
:10611000000000000000000000000000000000007F
:10612000000000000000000000000000000000006F
:10613000000000000000000000000000000000005F
:10614000000000000000000000000000000000004F
:10615000000000000000000000000000000000003F
:10616000000000000000000000000000000000002F
:10617000000000000000000000000000000000001F
:10618000000000000000000000000000000000000F
:1061900000000000000000000000000000000000FF
:1061A00000000000000000000000000000000000EF
:1061B00000000000000000000000000000000000DF
:1061C00000000000000000000000000000000000CF
:1061D00000000000000000000000000000000000BF
:1061E00000000000000000000000000000000000AF
:1061F000000000000000000000000000000000009F
:1062000010B5054C237833B9044B13B10448AFF3F0
:1062100000800123237010BD102F0020000000001B
:10622000A01F04000C4B43B10C480D4910B5AFF34F
:1062300000800C48036823B910BD0A48036833B9CD
:106240007047094B002BF7D0BDE810401847064BAC
:10625000002BF5D0184700BF00000000A01F04006D
:10626000142F00200C2F002000000000154B002BE5
:1062700008BF134B9D46A3F5803A00218B460F467D
:106280001348144A121A1AF0EDFF0F4B002B00D0DE
:1062900098470E4B002B00D09847002000210400A7
:1062A0000D000D48002802D00C48AFF300801AF012
:1062B0008BFF2000290000F033FA1AF071FF00BFB5
:1062C0000000080000FD00200000000000000000A9
:1062D000102F00209C65002000000000000000003E
:1062E00041DF7047004700BF704700BF704700BFE5
:1062F000024A8621032001F055BA00BF701704003E
:1063000008B50F4B0F484FF6FF725A809A801A80DB
:1063100016F040FE68B90C4A0C4800211AF016FF2E
:1063200000B908BD0A4A4FF4FC71BDE8084001F00D
:1063300039BA074A40F2F71101F034FAEBE700BF2F
:106340002C2F002055630200ED620200342F002044
:106350007017040001F0CCB80023034A19461B2033
:10636000137002F0F5B800BF742F00200023034A19
:1063700019461A20137002F0EBB800BF742F0020EA
:1063800008B500211A2002F0E3F801211B20BDE826
:10639000084002F0DDB800BF08B5382200210648E9
:1063A0001AF060FF054808F009FE00B908BD04486E
:1063B000BDE8084009F0C4B9782F0020502F002014
:1063C000CC2D002010B5382201210A4808F0F4FE37
:1063D00050B104463822084904301AF038FF2046EC
:1063E00008F02EFF002010BD044809F0A9F9002094
:1063F00010BD00BF502F0020782F0020B02D0020AE
:1064000003781C2B00D07047002005F02DBF00BF83
:1064100000B587B00C4B0D490D4A0393042304913A
:10642000059202930DF0C6FE0123A0F500526946C5
:1064300008488DE80C0008F07BFF10B1064809F011
:106440007FF907B05DF804FB75640200F162020099
:10645000E9620200502F0020A02D002003780D2BB0
:1064600004D1034B1A780AB901221A70704700BF91
:10647000B02F0020012A04D0022A02D0032A03D020
:106480007047784602F01EB9024A7F21042001F0CD
:1064900089B900BF7017040038B5C0B1032815D101
:1064A0003822002122481AF0DDFE224808F086FD3D
:1064B00010B1214809F044F90AF08AFB0422C821EE
:1064C0004FF08060BDE8384002F058B838BD1B4C32
:1064D00023783BB916490A884888904203D302B30F
:1064E0001E2A0DD938BD888801F11802022101F059
:1064F00097F801211B2002F02BF80123237038BDEF
:106500000F4B104AC9881A6004251A4602205D60A4
:1065100000F012FB00F074FB01211A2002F018F8C1
:10652000EBE7074B084AC9881A601025EDE700BF62
:10653000782F0020502F0020CC2D0020742F002019
:10654000482F00208C1704007C17040030380428E2
:1065500000D9704738B5C0B1032815D138220021C1
:1065600022481AF07FFE224808F028FD10B1214889
:1065700009F0E6F80AF02CFB0422C8214FF08060F5
:10658000BDE8384001F0FABF38BD1B4C2378D3B9C1
:1065900016490A88488890421CD3AAB11E2A12D8EC
:1065A000164B174AC9881A60042502201A465D60F6
:1065B00000F0C2FA00F024FB01211A2001F0C8FF0C
:1065C0000123237038BD38BD0C4B0E4AC9881A60B0
:1065D0001025EAE701F118028888022101F020F86D
:1065E00001211B2001F0B4FFEAE700BF782F002053
:1065F000502F0020CC2D0020742F0020482F002089
:106600008C1704007C17040010B5382201210A48B9
:1066100008F0D2FD50B104463822084904301AF07F
:1066200016FE2046BDE8104008F00ABE0448BDE84A
:10663000104009F085B800BF502F0020782F0020AF
:10664000B02D002038B51D4C00211B2001F080FF2B
:106650006388013363800AF0A3FD382201211848C2
:1066600008F0AAFD28B305463822214604301AF066
:10667000EEFD284608F0E4FD63881E2B07D90422AE
:10668000C8214FF0E050BDE8384001F077BF0D4B16
:106690000D4AE1881A6002201A4604245C6000F06A
:1066A0004BFA00F0ADFA01211A20BDE8384001F0A4
:1066B0004FBF064809F044F8DEE700BF782F0020FE
:1066C000502F0020482F00208C170400B02D0020F0
:1066D00010B5114CA18820890BF04AFFB0B9A188F0
:1066E00020890BF0CBFF58B920881AF039F900B98E
:1066F00010BD0A4A4FF4D671BDE8104001F052B8FF
:10670000064A40F2A91101F04DF8EDE7034A4FF4B3
:10671000D47101F047F8E2E72C2F00207017040035
:1067200080B592B001F0A2FA002840F0DA8001F0C2
:1067300055FF6F4801F078FF002840F0C0806D4899
:10674000029001F047FE002840F0C580242200217D
:1067500009A81AF087FD07230121674C674A8DF8C5
:10676000241009A80DEB03018DF827308DF82C308B
:106770000D9411920AF0EEF9002840F09A806048DA
:1067800005F008FDFFF744FE08F0F4FF064648B99F
:1067900007F022F90028F7D020BF08F0EBFF0646EB
:1067A0000028F5D00121574808F03EFC0446002897
:1067B00069D0011D382254481AF049FD534D544FF9
:1067C0000FCD03AC0FC495E8030084E8030003A8D1
:1067D0003E7600F061FA9DF80730002B4AD000F0B9
:1067E00021FA4C494C4800F093FFEFF3108072B649
:1067F0004A4CA568002D35D1494B4A490122A26077
:10680000D3F880200A402260C3F88010D3F8842097
:1068100062604FF0FF32C3F8842000B962B6642191
:10682000414801F039FE05F08FFCE8B900214FF036
:10683000E05001F099FE0222C8214FF0E05001F033
:106840009DFEA3685BB155B9EFF3108372B6344A6D
:106850002168116061685160A56003B962B6FFF7F5
:106860003FFDFCE70125D8E7304A40F24D2100F01A
:1068700099FFDBE700F038FAFFF72AFF0AF090FCF7
:10688000FFF7C2FEADE7204D3822214628461AF018
:10689000E9FC4FF480732C60EB80FFF793FD064614
:1068A00000288BD0214A4FF4DE7100F07BFF264692
:1068B00084E71E4A40F2052100F074FF5FE71B4A9F
:1068C0004FF40D7100F06EFF0A48029001F082FD56
:1068D00000283FF43BAF154A40F23B2100F062FF35
:1068E00034E7124A40F22F2100F05CFF1FE700BF9F
:1068F00099640200010000070164020001630200C4
:10690000C02D0020502F0020782F002058170400A1
:106910002C2F00205963020045660200F06400201D
:1069200000E100E0FC06FFBD4D65020070170400A9
:10693000F0B5037889B00446082B1AD8DFE803F0D5
:106940001B195F19198119059200704B027A1A8080
:10695000406810230022012115F02EF848B16C4A3E
:106960001378002B00F0BA806A49013B01201370B4
:10697000087009B0F0BD674E3378012BF9D1664F2E
:106980003B6819680434B9B15A68AAB1102A00F2F8
:10699000B0800025AE4606E03B685A68C2F110019F
:1069A0008D42E6D8196804EB0E001AF041FC01355F
:1069B000EDB2AE460028EFD1584B594859681A89B4
:1069C0000588002305930831ADF8142001A8102292
:1069D000069301930293039304938DF81C30ADF852
:1069E0001A501AF034FC01AA214601234D4814F034
:1069F000B7FF002840F0848003233370B9E7454D8A
:106A00002C78032C62D0022CB3D1444E3F4A7368D9
:106A100010881988DA88424F024401313F88198072
:106A2000DA809F80F36898473369984773682146F6
:106A300003F118029888002300F0F2FD00232B7068
:106A400097E7394B0FCB01AD85E80F002946606809
:106A5000102214F0BDFF00288BD0344AFD2100F035
:106A6000A1FE86E72B4AC368314902201070D88AFC
:106A70000DF0BAFC28BB294BE2681B68D08A598804
:106A8000A2682C4B0EF094FBB0B92A4C208816F06B
:106A9000F7FA60B9264B2088198816F0A3FA002867
:106AA0003FF467AF214AD02100F07CFE61E71F4A26
:106AB000CE2100F077FEEDE71C4ACB2100F072FEFC
:106AC000E3E71A4AC72100F06DFED4E7104A1378B5
:106AD00053B1013B0121137029704AE70F4A0D4958
:106AE00052690B70904744E70C4A2B7053699847E2
:106AF0003FE7784601F0E6FD3B6893E8060048E78B
:106B00000A4A722100F04EFE76E700BF38330020BB
:106B100034330020D43200203C330020D83200200F
:106B200036330020A031002090170400B017040075
:106B3000B22F0020B42F002070B5254E5368254C8D
:106B400030701546244A21800120102B86B0107029
:106B500002D9784601F0B6FD204C214A2378156011
:106B60001BB10123237006B070BD1E4B93E80700D4
:106B700003AB03C323F8022B1B491C48120C1A70E9
:106B800014F0ECFEF0B91A4B0093174A1749194854
:106B900003AB14F0AFFE80B9174815F087FF01462C
:106BA000144814F0C5FE0028DBD0144A7E2100F002
:106BB000F9FD0123237006B070BD104A7D2100F05D
:106BC000F1FDE9E70D4A7C2100F0ECFDDBE700BFB9
:106BD0003433002036330020D4320020F03200203D
:106BE0003C330020A0170400B82F0020F43200200E
:106BF00031690200A0310020D82F0020B017040016
:106C000008B5064814F0ECFE00B908BD044A40F28D
:106C10001B11BDE8084000F0C5BD00BF316902008E
:106C2000B017040030B583B002AC194D012344F80D
:106C3000043D2868214602300EF098FA10BB019BF3
:106C4000012B02D0784601F03DFD2B682246191D2C
:106C500058880EF087FC78B968460DF0B5FB2968B6
:106C6000BDF800000EF020FB20B10A4A4FF49571E8
:106C700000F098FD03B030BD064A4FF4937100F068
:106C800091FDE9E7034A4FF4927100F08BFDD6E7DE
:106C9000D8320020B0170400F8B5C3680446A3B189
:106CA0006369B3B1236963B10FCC0C4D0C4F0D4E2A
:106CB0000FC594E8030085E8030000233B703370A0
:106CC000F8BD784601F0FEFCEEE7784601F0FAFCEC
:106CD000E6E7784601F0F6FCE4E700BFD832002092
:106CE000F0320020D432002010B5264B82B002A82A
:106CF000DB6940F8043D0DF02BFB00283BD1224C12
:106D000060681021083006F06DFA606810211830B4
:106D100006F068FA60681021283006F063FA2268ED
:106D200061680232083100200DF0B0FFE8B9236835
:106D3000626859881832043300200EF0DDFA70B909
:106D4000236862685988283201200EF031FA20B198
:106D50000E4A40F24D1100F025FD02B010BD0B4A65
:106D60004FF4A57100F01EFDEAE7084A4FF4A47144
:106D700000F018FDDBE7054A4FF4A07100F012FDAA
:106D8000BDE700BF90170400D8320020B017040000
:106D9000F0B5B64B1B681B78013B89B00C2B00F299
:106DA0004382DFE813F0320044005D0072004401CA
:106DB000CA004102CA0185008501FF00F8010D00EB
:106DC000AB4B18884CF2020210F0010F4CF2030397
:106DD0004FF0000108BF13460322ADF80A300391BB
:106DE0008DF8082002AB93E80600592316F026FB25
:106DF000112800F07982002840F05D829D4B9E4969
:106E00009E4A596048F21F0407E2002016F052F92A
:106E1000112800F05582002840F04882954A974991
:106E2000002302205080137053600B70FAE1944BE2
:106E3000944A19881268002016F096F9112800F07B
:106E40007B82002840F02D828A4B8F498B4A596003
:106E500048F20304022000215C8018701170E1E107
:106E6000834B8749894A09881888029216F0B2FB39
:106E7000112800F04D82002840F00E827D4B7F4AA1
:106E80008349596048F23E04C7E1794B7C4A18882F
:106E9000118859231A46029316F09CFB112800F022
:106EA0008782002840F0F381724B744A7949E8E701
:106EB0006F4B1B880024013340F2051002940394A9
:106EC000ADF80830049405940694079405F00CF886
:106ED0009DF818306A4A8DF80C0003F003031788F8
:106EE0008DF81640012264F30103592102A840F2F3
:106EF00005161E258DF81A408DF81C408DF81E4091
:106F00008DF81830ADF81470ADF80E608DF817508C
:106F10008DF819208DF81D208DF81B1016F098F9AA
:106F2000112800F01D82002840F0AC81514B5A49D5
:106F3000524A596048F219046FE101224C4D910008
:106F40000224002364F3010106932E888DF81810A3
:106F500002A84FF0FF311E25079303930293059378
:106F600004938DF80C20ADF80E208DF819208DF8C3
:106F70001D408DF81E30ADF808608DF817508DF863
:106F80001B108DF81C1016F063F9112800F03A82DE
:106F9000002840F07281374B4049384A596048F226
:106FA00019043AE1324B1B88002403334CF20300EE
:106FB00002940394ADF80830049405940694079461
:106FC00004F092FF9DF818302D4A8DF80C0003F064
:106FD000030317888DF81640012264F30103592139
:106FE00002A84CF203061E258DF81A408DF81C40AD
:106FF0008DF81E408DF81830ADF81470ADF80E60A5
:107000008DF817508DF819208DF81D208DF81B1064
:1070100016F01EF9112800F0E081002840F02881C8
:10702000144B1F49154A596048F21904F5E01D4CEC
:107030002088002800F0FF80114B1B4A198802921B
:1070400016F0C8FA112800F0F281002840F0F9800B
:10705000084B2288154D09495D60013248F23E0611
:10706000012522805E801D700870DBE0DC2D002091
:10707000423300204433002000180400F434002080
:1070800040330020F8340020E8170400FFFF02001E
:10709000EC170400F017040004180400F8170400AB
:1070A0000C180400F634002059000100F417040005
:1070B000B54B1B88002402334FF483700294039471
:1070C000ADF80830049405940694079404F00CFF7E
:1070D0009DF81830AD4A8DF80C0003F003031788B3
:1070E0008DF81640012264F30103592102A84FF4E0
:1070F00083761E258DF81A408DF81C408DF81E40B1
:107100008DF81830ADF81470ADF80E608DF817508A
:107110008DF819208DF81D208DF81B1016F098F8A9
:10712000112800F0AE81002840F09380984B9949D7
:10713000994A596048F219046FE0934A934B1188B9
:107140001E880C1F00230122039302A8ADF80E40F5
:107150001E2559240593069302930793ADF8081052
:1071600004938DF81C30ADF814608DF80C208DF868
:1071700019208DF817508DF81B4016F069F811286A
:1071800000F0948100286ED1814B8449824A596075
:1071900048F2190441E07C4B1B88002404334CF274
:1071A000020002940394ADF8083004940594069408
:1071B000079404F099FE9DF81830744A8DF80C007D
:1071C00003F0030317888DF81640012264F30103CE
:1071D000592102A84CF202061E258DF81A408DF89E
:1071E0001C408DF81E408DF81830ADF81470ADF8C5
:1071F0000E608DF817508DF819208DF81D208DF830
:107200001B1016F025F8112800F0268130BB604BCA
:107210006349614A596048F21904012000215C80E9
:107220001870117009B0F0BD5E4A40F2312105209E
:1072300000F0B8FAF6E7544B1888013080B220808D
:10724000FAE6584AD32100F0ADFA514B524A56495A
:1072500017E6544AD32100F0A5FA67E7514AD32133
:1072600000F0A0FAD3E74F4AD32100F09BFA8BE756
:107270004C4AD32100F096FAD2E64A4AD32100F0D4
:1072800091FA88E6474AD32100F08CFA4EE6454A47
:10729000D32100F087FA07E6424AD32100F082FAB0
:1072A000ECE5404AD32100F07DFACDE53D4AD321FB
:1072B00000F078FAB2E53B4AD32100F073FA9DE57D
:1072C0003A4C2378002BF1D016F000FA05F02CFE92
:1072D00000F5F42303F59073201DA36005F0CCFCAA
:1072E0002378013B237099E5304C2378002BE2D0C2
:1072F00016F0ECF905F018FE00F5F42303F5907391
:10730000201DA36005F0B8FC2378013B237075E5D0
:10731000264C2378002BBFD016F0D8F905F004FED8
:1073200000F5F42303F59073201DA36005F0A4FC81
:107330002378013B2370A1E51C4C2378002BB0D0AF
:1073400016F0C4F905F0F0FD00F5F42303F5907391
:10735000201DA36005F090FC2378013B237073E5AA
:10736000124C2378002B8DD016F0B0F905F0DCFD1F
:1073700000F5F42303F59073201DA36005F07CFC59
:107380002378013B2370D1E54233002040330020B5
:107390004433002008180400F4340020FC170400D3
:1073A00010180400D8170400F4170400D834002083
:1073B000494C2378002B3FF46AAF16F087F905F0AB
:1073C000B3FD00F5F42303F59073201DA36005F0D1
:1073D00053FC2378013B237066E53F4C2378002B58
:1073E0003FF446AF16F072F905F09EFD00F5F42368
:1073F00003F59073201DA36005F03EFC2378013B4C
:1074000023700DE6344C2378002B3FF436AF16F092
:107410005DF905F089FD00F5F42303F59073201D57
:10742000A36005F029FC2378013B2370B3E52A4CC7
:107430002378002B3FF405AF16F048F905F074FDF2
:1074400000F5F42303F59073201DA36005F014FCF0
:107450002378013B2370F8E61F4C2378002B3FF480
:10746000FDAE16F033F905F05FFD00F5F42303F5EA
:107470009073201DA36005F0FFFB2378013B237070
:10748000C5E6154C2378002B3FF4E3AE16F01EF949
:1074900005F04AFD00F5F42303F59073201DA36069
:1074A00005F0EAFB2378013B23703FE60A4C237882
:1074B000002B3FF4D8AE16F009F905F035FD00F5C4
:1074C000F42303F59073201DA36005F0D5FB23780A
:1074D000013B237058E600BFD834002008B50348AC
:1074E00005F0FCFBBDE80840FFF752BCDC3400208F
:1074F00030B9414A138833B1013B1380FFF748BCD0
:10750000022806D070473D4B3D4A3E491B6811603A
:1075100018472DE9F0413A4E33681B780E2B0DD0F9
:10752000394F3B7853B915460C4600294BD0DFF84C
:10753000EC802288B8F80230934201D0BDE8F08197
:1075400048F21902012193423970616806D03ED891
:10755000022B4AD048F20302934240D1087898F8AF
:10756000001009B3D8F804301A7882420FD01944B9
:10757000013303E013F8012B824208D09942F9D17C
:107580001E4B204A1B683260BDE8F0411847238833
:10759000022B09D11D486168058011F8013B8370F9
:1075A0006A1E033019F053FE33685A7801330E2AED
:1075B000336006D0164B03221A70BDE8F041FFF786
:1075C000E7BB144BDDE7784601F07CF8AFE748F203
:1075D0001F029342C2D048F23E029342BED00E4AEE
:1075E0004FF48471052000F0DDF898F800100029B0
:1075F000CDD0FF20B6E700BFD4340020CC3400202B
:10760000DC2D002011180400F43400204C3300203D
:10761000D8340020D0340020D81704004433002090
:10762000F0B5304C25682D7885B00DB105B0F0BDB2
:107630002D4F2E4D2E4E3980ADF80A002D49288051
:107640002D48F160DFF8C4E00260032131700127AA
:107650004FF6FF7601A902A8AEF80030ADF804603D
:10766000ADF806608DF808700DF0F2F988BB0DF1E9
:107670000601BDF80A000DF017FE20BBBDF806009C
:1076800015F0FEFCC8B9BDF80410BDF8060015F0F1
:10769000A9FC20B1194A40F2492100F083F82B8857
:1076A000B3F5807F1BD0B3F5837F94BF144B154B8C
:1076B0002360FFF76DFB05B0F0BD104A4FF4127167
:1076C00000F070F8DFE70D4A40F2452100F06AF85B
:1076D000D4E70A4A4FF4117100F064F8C7E70A4B87
:1076E0002360E6E7DC2D0020D43400204233002064
:1076F000D8340020DD740200F8340020D8170400CC
:10770000141804001C180400C8170400403300209B
:1077100010B5044682B030B161B1094A094B14601A
:10772000196002B010BD0191784600F0CBFF0199BD
:107730000029F2D10191784600F0C4FF0199ECE7ED
:10774000D0340020CC3400200649074A074B9B1A4E
:1077500003DD043BC858D050FBDC00F0BDFBFEF756
:1077600085FD0000AC1F0400A02D0020102F00207C
:10777000FEE7FEE7FEE7FEE7FEE7FEE7FEE7FEE7E1
:10778000FEE7FEE700B585B000230390194601AA85
:1077900044F201000193029300F012F805B05DF885
:1077A00004FB00BF00B583B002900091019244F247
:1077B000010071466A4600F003F803B000BD00BF47
:1077C0004FF0A0434FF0E052C3F81825C3F80C2542
:1077D000EFF3108372B6044A13781BB130BF1378ED
:1077E000002BFBD1704700BFE02D0020F8B5204AE8
:1077F000204B0025C2F84051C2F84451C2F848510C
:10780000C2F84C51C2F80051C2F804511B6813B3BE
:107810001949D2F804450A68A41A1A6824F07F446A
:10782000A2422F4609D8197CDE69A41A154499B9D9
:107830001EB133461A68A242F5D91049104A0B7896
:1078400012789A420DD00F490F4A41F823504FF455
:107850008013C2F80031F8BD1F745A6998699047C7
:10786000E6E7531CDBB2022B08BF00230B70EAE7EC
:10787000001001401C36002018360020153600206C
:10788000143600200C36002000E100E02DE9F04F16
:10789000B74AB84913780978994285B033D0013393
:1078A000DBB2022B08BF0023B3481370B34A07684A
:1078B000DFF8E08252F82320D8F80010BB1800242B
:1078C00023F07F43036025462046A646A9B10B68F6
:1078D000934200F27D81CC68C1F800E0D21A1844CE
:1078E000CB6934B13E1826F07F46CD618C604E6086
:1078F0000D46194601240029E9D1002C40F0A5814C
:107900004FF0010B05E0DFF88C820025D8F800105D
:10791000AB469B4B9B4FDFF8809243F001030093F3
:107920000E464FF0000A002D2DD0D5F804E0D5F812
:1079300008C02C46ED69904B93481B68AEEB0302E0
:1079400022F07F42824255D802EB0C0323600022D2
:1079500001206260A260E2612074002E6BD030686A
:10796000834261D9B64603E0106898424CD29646ED
:10797000DEF81C201B1A002AF6D12360E261CEF843
:107980001C40002DD1D197F801C097F800E0F445D4
:1079900071D0734603EB43030EF10100BA7807EB95
:1079A000C3035FFA80FE7245187987F800E004BFD0
:1079B0004FF0000E87F800E002289A684CD00328A8
:1079C0003DD00128E3D1107C0028E0D1D3F80CE0B1
:1079D000C2F804E0D3F810C0C2F808C014465A69CF
:1079E000E26099F800209B69A361002AA3D060603F
:1079F0008646A0E7A3EB0E0323F07F4363450AD23C
:107A0000ACEB03032360A2E7C01A10602360E261BD
:107A1000CEF81C40B5E70023012223606360A36019
:107A2000E36122743EB13068C8F80040C31A336085
:107A3000E661264677E7C8F80040264673E7002E41
:107A4000A5D0002200E01E46F3693274002BFAD163
:107A5000C8F800301E4696E74EB1B242344603D114
:107A6000BDE09A4260D01C46E369002BF9D10023A7
:107A70001374F4458DD1BAF1000F02D18E4200F09B
:107A80009D80002E00F0C5803B4B404A1C68D2F818
:107A90000475DFF80881D6F800A098F800103B1BA9
:107AA00023F07F43DD1CA9B93949354B4FF48030B1
:107AB000C2F844030126C2F804034FF40030C1F8B1
:107AC000800143F00103086016604FF43C60984762
:107AD00088F80060AA452CBF04EB0A0363192B4900
:107AE00023F07F43C1F84035D1F80425D21BDB1BBE
:107AF00022F07F4223F07F4303329A420ED9204B7B
:107B0000D1F80425C1F8402543F001034FF43C604F
:107B100098471F4B4FF40032C3F80021002389F827
:107B2000003005B0BDE8F08FA24239D0D2F81CE099
:107B30001368C4F81CE0BEF1000F11D03046DEF827
:107B400000402344CEF80030864209D0002397F845
:107B500000E097F801C0137406464FF0010A88E769
:107B6000002397F800E097F801C0137481E700BF85
:107B70001436002015360020183600200C36002060
:107B800030180400FC340020FEFF7F00001001408C
:107B900000E100E01C3600200836002009360020F5
:107BA0001346F069C8F80000D8B1D3F81CE01B6890
:107BB000C4F81CE0BEF1000FC1D1C5E7BBF1000F56
:107BC0007FF45FAF002389F8003005B0BDE8F08F87
:107BD000002C3DD19B1A0B604FF0010B99E6334608
:107BE000DFE701931C4BDFF87CC003924FF0010EDE
:107BF0000291C3F808E0009BCCF8000089F800E08F
:107C00004FF43C609847D8F80000019B0299039A12
:107C1000CBE7114D114A124C4FF480334FF4003131
:107C20000127C2F880103C43C5F848334FF43C604C
:107C3000C5F808336F60A0470A4BAF604FF43C6053
:107C40001E60A047084B1E7068E7C8F8001057E692
:107C5000C8F80010BEE700BF0010014000E100E0DE
:107C60003018040018360020093600202DE9F843AA
:107C70001F4D204E204FDFF898804FF480334FF493
:107C800000324FF001090024C6F8802047EA0907B6
:107C9000C5F848334FF43C60C5F80833C5F8049084
:107CA000B847C5F808904FF43C60C8F80040B847A2
:107CB000124B13481349144A1C70144B04600C7087
:107CC00014704FF48011E0220B2098701C705C70CF
:107CD000C6F8801186F814233160C5F8084586F887
:107CE0001123D5F80435C8F800302046BDE8F883E4
:107CF0000010014000E100E03018040009360020C7
:107D00001C3600201436002015360020FC340020DC
:107D100018360020074B9B780BB9082070473AB102
:107D200030B10368187C0028F7D159745A61704744
:107D300007207047FC3400202DE9F043264CA3783F
:107D400083B01BB9082003B0BDE8F0830028F9D048
:107D5000042903D8072003B0BDE8F0834369002B52
:107D6000F0D0064602A8737C0025012B00F8015DC7
:107D70000CBF8946A94690460F4600F06FF863781D
:107D8000A07821785A1CD2B2904208BF2A4691426C
:107D90001BD003EB430304EBC30301200F4918710D
:107DA0009E60D1F804159DF80700D9601F61C3F8E3
:107DB0001490C3F81880627000F076F8084B4FF406
:107DC00080122846C3F80021BDE79DF8070000F0A7
:107DD0006BF80420B7E700BFFC340020001001401E
:107DE00000E100E070B51B4CA37882B013B9082005
:107DF00002B070BD0028FAD04369002BF7D00646C8
:107E000002A8002500F8015D357400F027F86278BB
:107E1000A0782178531CDBB2984208BF2B469942C8
:107E200012D002EB420204EBC20202219DF80700CD
:107E300096601171637000F037F8074B4FF48012B1
:107E40002846C3F80021D3E79DF8070000F02CF87E
:107E50000420CDE7FC34002000E100E070B4EFF333
:107E6000108472B60D4B9A68AAB90D490D4E0125C2
:107E70009D60D1F8805035401D60C1F88060D1F818
:107E800084505D604FF0FF33C1F88430027004B954
:107E900062B670BC704701230370F8E7F0640020FD
:107EA00000E100E0FC06FFBD094B9A6872B168B9B9
:107EB00010B4EFF3108272B606491C680C605C685F
:107EC0004C60986002B962B65DF8044B704700BF21
:107ED000F064002000E100E0F0B4B44B1A78062A08
:107EE00020D0B34B1B68062B00F08A80B14AD2F831
:107EF000883043F47003C2F88830BFF34F8FBFF36C
:107F00006F8F4FF01023D3F80022002AC0F28A812D
:107F1000D3F80432002BC0F28581A74BA74A1A6020
:107F2000F0BC704704331B681807DAD1A44B1B68F8
:107F300003F0F002302A00F0658103F0E003402BEB
:107F400000F060819E4B1B6803F0F003302B00F0C3
:107F50001E819B4B1B6803F0F002302A00F0078162
:107F600003F0E003402B00F00281954B1B6803F007
:107F7000F003302B00F0EB80914B1B6803F0F00214
:107F8000302A00F0D08003F0E003402B00F0CB80DB
:107F90008B4B1B6803F0F003302B00F0B680884B4E
:107FA0001B6803F0F003302B00F09880844B1B68B3
:107FB00003F0F003502B3FD0814B1B6803F0F0021D
:107FC000302A28D003F0E003402B24D07C4B1B68E0
:107FD00003F0F002302A03D003F0E003402B80D1FD
:107FE0004FF08043D3F80024D2077FF57AAF6FF0CB
:107FF0000102C3F800246E4B1B68062B7FF476AF9A
:10800000704B1B68062B7FF471AF6F4A136843F403
:10801000806313606AE76D4B6D4A1B6803F04F0382
:108020001360624B1B78062B7FF45BAF694B1B68B8
:1080300018077FF456AFC9E74FF08052664BD2F86D
:108040000414C3F82015D2F80814C3F82415D2F884
:108050000C14C3F82815D2F81014C3F82C15D2F854
:108060001414C3F83015D2F81814C3F83415D2F824
:108070001C14C3F84015D2F82014C3F84415D2F8E4
:108080002414C3F84815D2F82814C3F84C15D2F8B4
:108090002C14C3F85015D2F83014C3F85415D2F884
:1080A0003414C3F86015D2F83814C3F86415D2F844
:1080B0003C14C3F86815D2F840143C48C3F86C155A
:1080C000D2F844140278C3F87015062A7FF409AF79
:1080D000404B1B681C077FF404AF6DE73F4E404CDC
:1080E0004049414B0527012500203F22376025608C
:1080F00008601A602D4B1B78062B7FF4F2AE354BCF
:108100001B681D077FF4EDAE50E7284B374A1B78FC
:108110000321062B11607FF4E4AE2E4B1B681E0773
:108120007FF4DFAE3BE74FF080430022C3F80C2121
:10813000C3F81021C3F838251C4B1B78062B7FF49D
:1081400070AF244B1B681F077FF4CBAE20E7284994
:10815000164ACB68127823F08073062ACB607FF42E
:10816000C0AE1C4B1B681B077FF4BBAE04E7214B62
:108170000E4A1B6812782049C3F34233062A0B606B
:10818000B8D1144B1B681A077FF4ABAEEDE6074B72
:108190001A4A1B781A491160062B7FF4A2AE0D4BC8
:1081A0001B6819077FF49DAED3E600BFE00F00F017
:1081B0003001001000ED00E0E42D00200090D0031D
:1081C000E80F00F0340100103C1700405802001086
:1081D000E40E0040E40F00F000C0004010560040E4
:1081E000885600401856004014560040A005004034
:1081F000F0ED00E0440200103C05004074C0074070
:108200000DF0ADBA204B214A1B6812782049C3F308
:108210000423062A0B608FD11E4B1B6819073FF4FD
:1082200091AE5EE61C4B0122C3F80425D3F800246E
:10823000002AFBD04FF0102315221749C3F8002263
:10824000D1F80034002BFBD04FF010221521124B37
:10825000C2F80412D3F80024002AFBD000220E49F1
:10826000C3F80425D1F80034002BFBD0BFF34F8FA7
:108270000A490B4BCA6802F4E0621343CB60BFF3B8
:108280004F8F00BFFDE700BF24030010E00F00F098
:1082900040350140E40F00F000E0014000ED00E057
:1082A0000400FA05F0B583B002A80023384C00F8AA
:1082B000013DFFF7D3FD2378002B38D0A56D666D07
:1082C000B54219D807D19DF80700FFF7EDFD4FF033
:1082D000FF3003B0F0BDE16C012229440DF106002E
:1082E00018F0B5FF01359DF80700A565FFF7DCFD27
:1082F0009DF8060003B0F0BD276DE16C7F1B012FD8
:1083000028BF012729443A460DF1060018F09FFFC7
:10831000236D3D449D4208BF0025761BC7F1010334
:108320009E4228BF1E4616BB002FDCD1CBE70220A1
:10833000184AA36218496362E362A3656365E36553
:10834000206110236061154F154D236540F2FF3603
:10835000E01DA261A264E7612662E56419F046F8B7
:108360001049204619F042F82023A371A6E7E16CDA
:108370000DF106032944D819012218F068FF0135D0
:108380009DF80700A565FFF78FFD002FB0D09EE791
:10839000FC64002038180400441804003036002023
:1083A00020360020481804004BDF704710DF70476C
:1083B00060DF704769DF704700B583B002E0019865
:1083C00003F0EAFE01A8FFF7EFFF0028F7D003B0A3
:1083D0005DF804FB00B589B008AB244943F81C0DD7
:1083E0001846FFF7E3FF002833D1214AE02382F843
:1083F000163392F816335B09012B2DD9042B2BD0A1
:108400001C4B996869BB4FF4800313601A4B0393AC
:10841000039B04930C22002105A818F023FF0023DE
:1084200005A9049A8DF814300120FFF7C3FF80B925
:1084300001460C2205A818F015FFF82305A9049A97
:108440000593A120FFF7B6FF18B904A8FFF7B0FF06
:10845000039B09B05DF804FB42F2020009B05DF82D
:1084600004FB1A6842F480021A60CFE7C177020069
:1084700000E100E0F0640020A02D002010B5054CC4
:10848000236813B905E023689847FFF70BFF00281E
:10849000F9DA10BD303A0020184B194A10B51860AF
:1084A0000C4618480121FFF735FC08BB610C00237E
:1084B000E00341F26F728B4208BF82420BD24FF44D
:1084C0007A72002318F0B4FF002201460E48FFF72D
:1084D00033FC38B910BD052100220B48FFF72CFCF6
:1084E0000028F7D0094A4721BDE81040FFF75AB9E4
:1084F000064A4621FFF756F9D8E700BF303A002078
:108500007D84020050180400343A002054180400FE
:1085100010B50C4C206888B10B4B4FF0A042196885
:10852000D2F8043501384B40C2F80435206000B160
:1085300010BD0648BDE81040FFF754BCFFF722F914
:108540002068E9E7543A0020583A00205C3A0020BD
:1085500001234FF0A04203FA00F011B9C2F8080558
:108560007047C2F80C0570474FF0A04311B9C3F82B
:1085700008057047C3F80C05704700BF0AB11329FE
:1085800000D87047F8B552004FF40043104D114C1D
:108590004FF4FA760027E3FB0167013A2A60206076
:1085A0004FF47A7230463946002318F041FF00221A
:1085B00001460948FFF7C0FB40B94FF0A0422168CF
:1085C000D2F8043523EA0103C2F80435F8BD00BF30
:1085D000543A0020583A00205C3A00204FF0A04363
:1085E00070B54FF0806103244FF000664FF0805566
:1085F000C3F868470A4AC3F808150A48C3F86C4725
:108600000121C3F80865C3F87047C3F80855FFF7A0
:1086100081FB00B970BDBDE87040FFF7B3B800BF83
:10862000118502009C180400C0B1F0B40C490D4A39
:1086300008600D4B0D4F4FF0A0404FF00046002159
:10864000E0254024C0F86477C2F80463C2F87C11C6
:1086500083F806531C600846F0BC70470E20704734
:108660007C3A00200060004000E100E00C000300C4
:108670000F4A00214FF0A043C2F87C11D3F8103507
:108680009B010CD40B4902F5A0420B68D2F80425DB
:10869000981A48BFD01A43F23333984200D8704733
:1086A000054A064BD2F804251B680A6000201847CB
:1086B00000600040803A002000B000407C3A00207A
:1086C0000620704700B583B000220146054BADF887
:1086D000002044F202006A460193FFF771F803B0EC
:1086E0005DF804FB7817040001461022014818F0D9
:1086F000AEBD00BF843A002010B5074C07492046A4
:10870000082218F0A4FD04F1080008220449BDE87D
:10871000104018F09CBD00BF843A0020600000109B
:10872000A400001000487047843A0020064B002245
:1087300003F580715A805A6003F8082B8B42F9D1F7
:10874000024B1A60704700BF943A0020943B00200F
:10875000F0B40D4B0D4D1B68074620226BB1013B59
:1087600015F8330005EBC30428B16688BE4206D075
:10877000013AF3D11046F0BC70471F23F0E764685C
:108780008C42F5D1F0BC7047943B0020943A002015
:10879000F0B4094D094C2B68012704EBC302DE1924
:1087A000202E04F83370508051600ABF00232E60E1
:1087B0002B60F0BC704700BF943B0020943A00202F
:1087C00000B58DB040B99A1C06D0012201A80293D1
:1087D0008DF8042001F0BEFC034B186805F070F81A
:1087E0000DB05DF804FB00BFA83B00202DE9F0436D
:1087F0000D468FB017461C468046002841D0002DFC
:108800003BD0002C43D06278A178636AA2F10802C1
:1088100000290DF10409B2FA82F20CBF02210121F4
:108820009E1C52094B4604F10C00059605F0A2F976
:10883000237B6278CDF8189015FA87F1022BCDF8DA
:108840001C80ADF820700C910B958DF8342008D069
:10885000002305A8ADF8283005F088F90FB0BDE871
:10886000F0832369BBB1099305A81023ADF8283024
:1088700005F07CF90FB0BDE8F0837846FFF722FFE2
:10888000BFE77846FFF71EFF002DBAD1F5E778461F
:10889000FFF718FFB7E77846FFF714FF2369E2E711
:1088A0002DE9F04F14461278A769F1B005468846C5
:1088B0009A4652B1A288C7F30C0393423ABFA7F578
:1088C00000515218D219D31AA3616278A378A2F189
:1088D0000802002B01AE04F10C09B2FA82F20CBFBF
:1088E0000221012133465209484605F043F96178D7
:1088F000227BA7611FFA88F8A8EB01039BB2EF184F
:1089000000200696022A10AE07958DF834100C97B9
:10891000ADF82030ADF828000B9600F08180A578E6
:10892000002D60D004F124070025022A04BF23692A
:10893000099365623A460CE002330DF1030105A884
:1089400005938DF8035005F013F99DF803303A466E
:108950002BBBE178206A0CF0FFFE636A002BEBD1A1
:10896000237B022B3CD14946E0890CF0B1FF002863
:1089700036D0227BD9E704F1240B5946E0890CF06C
:108980002BFF0DF10307636A3D70002B32D00233D9
:10899000394605A8059305F0EBF83B7853B399E801
:1089A00003006278A57D06960AAB83E80300A8EB76
:1089B0000208A68A216A626ACDF83CA0002301243D
:1089C00005A8ADF81C80ADF822608DF8143009932D
:1089D0008DF820408DF838500C910D9201F0BAFBC3
:1089E00071B0BDE8F08F012A6562C4D004F1240B98
:1089F0000DF10307002559466562A08A0CF0ECFED4
:108A0000636A3D70002BEBD00233394605A805930D
:108A100005F0AEF83B78002BC1D171B0BDE8F08F06
:108A2000A3781021ADF82810002B7FF47BAFDDE791
:108A30002DE9F04F90F84C50C779BD4289B000F253
:108A4000C680013500F10C030446EDB24FF0000979
:108A50004FF00108019304E06B1CAF42DBB227D357
:108A60001D466B1E5FFA83FBA26C08FA0BF11142E4
:108A7000F2D1E27D019B84F806B0002A0CBF0C26DF
:108A80000826BB4506FB0BFA227808BFB4F84660FF
:108A9000039308BFA6EB0A06002A0CBF0127042790
:108AA000F119A26A059103A8049205F065FA18B1BC
:108AB000484609B0BDE8F08F079A1744BBF1000F94
:108AC00008D194F84F1029B9A16984F84F80C1F3F7
:108AD0000C01A180E17D00296CD194F84E1089B978
:108AE000BBF1000F6FD16378A16EB4F84620084641
:108AF000D21A2346FFF77AFEE37D84F84E80079A68
:108B0000002B57D1A1781378890123F0400301F09D
:108B1000400119431170E37821F03F0103F03F0356
:108B20000B431370217803F07F0343EAC1131370E2
:108B3000237883B3607853789178A0F10800B0FA75
:108B400080F0400903F07F0343EAC0135370A0880C
:108B500001F00301C0F3861E41EA800123F07F0388
:108B60004EEA0303C9B291705370D378A07903F031
:108B70001F0321F00301C0F3C10E43EA40134EEA84
:108B80000101DBB2D3709170E17923F01F0301F092
:108B90001F010B43D370A16E32463846514418F082
:108BA00056FB03A805F034FA09F10109E77984F8C6
:108BB0004C5051E71378A17823F07F0301F07F0137
:108BC0000B431370AEE77846FFF77CFD8BE74FF061
:108BD00000096DE72DE9F041037886B004460F46A1
:108BE0001646002B73D1C27D4378002A0CBF0F229A
:108BF0000B223344934204D90925284606B0BDE828
:108C0000F081013304F10C01A26A039301A80191E0
:108C1000029205F0B1F905460028EED1059AE37DF0
:108C2000501C002B00F0EA801378A17823F07F031A
:108C300001F07F010B431370217803F07F0343EAB7
:108C4000C11313702378A3B394F801E0537891789B
:108C5000AEF1080EBEFA8EFE4FEA5E1E03F07F03F1
:108C600043EACE135370B4F804C001F00301CCF30F
:108C7000861E41EA8C0123F07F034EEA0303C9B24A
:108C800091705370D37894F806C003F01F0321F05D
:108C90000301CCF3C10E43EA4C134EEA0101DBB2EF
:108CA000D3709170E17923F01F0301F01F010B4392
:108CB000D370E37D002B40F0978001462346324677
:108CC0003846FFF793FD01A805F0A2F995E7C37DAB
:108CD0004578002B0CBF4FF4C0734FF480731544DC
:108CE0009D4289D8EFF3108272B6574B93F8441027
:108CF000002900F0958093F8B010002900F09880CA
:108D000093F81C11002900F08A8093F8881100293B
:108D100000F09080002A65D1904662B6B8F1000F4D
:108D200060D0D8F8683013B17846FFF7CBFC474BDA
:108D300028461B689847C8F86800002852D021468A
:108D40002C22404618F083FA0023A8F84650C8F8B1
:108D50004830A369A088C3F30C01814249D303447E
:108D6000591A3B4DC8F818102B7D88F84D30002358
:108D700088F84E3088F84F3088F84C30A26A354B6E
:108D8000C8F850206FF00102C8F82820C8F8343025
:108D90000120C8F83C8002F02FFD012388F8443000
:108DA00032463946D8F8680018F051FA4046FFF7C5
:108DB0003FFE98F84430012B02D07846FFF782FC42
:108DC00098F80C30012B37D0EB68C8F8383004F035
:108DD000ABF8D8F83810014408F12C0003F0ACFFD0
:108DE00000250AE7042508E73246394618F02FFA2D
:108DF00069E7A3F500520244511AB2E7A17813784B
:108E0000890123F0400301F0400119431170E37818
:108E100021F03F0103F03F030B4313700CE70221E5
:108E20004FF06C0808FB0138002A7FF47AAF74E732
:108E30000121F5E70321F3E798F816302969EA687C
:108E400001FB0323C1E700BF0C3C0020A43B002032
:108E5000F43B00203190020070B505468EB00C4600
:108E60000622002101A818F0FDF9A8889DF8042029
:108E70009DF80530A97D8DF80940C0F3861622F0D3
:108E80007F0203F0030343EA80033243200C260EE3
:108E9000240A8DF805308DF804208DF806608DF8D1
:108EA00007008DF808402B6A09B11E4A517D03B3B3
:108EB000EC89AE8A0B930122002320466FF0010556
:108EC0008DF82210ADF82040ADF81A608DF80E3004
:108ED0000C938DF80C308DF80D3007938DF823200E
:108EE0008DF818200D9502F0FFFF012804D0102006
:108EF00000E00E200EB070BD9DF81830002BF6D0AB
:108F0000022B0BD09DF92230002B05DB01A9062294
:108F100003A8FFF75FFEEDE70720EBE7079B002BB9
:108F2000F0D1E4E7F43B002010B591F84430022B77
:108F30000C4602D07846FFF7C5FB237B0222012BAB
:108F400084F8642003D0002384F8643010BDA16C41
:108F50002046FFF781FF0028F5D010BD2DE9F04332
:108F60000D468DB00446002858D02378002B4CD0F5
:108F70002C492D4E0868B4F814C000F00707FB0018
:108F800006EB030E0130AEF802C0A269B4F804E0AB
:108F90000860C2F30C00704532D37244101A334497
:108FA0004FF000085860E269D4F8509006F8378016
:108FB00002F0010241465A7001A82C2218F052F921
:108FC0000F2301A88DF80430CDF808908DF80C50CF
:108FD00001F0C0F8154BA06E1B689847C4F8688074
:108FE00004F12C0003F07AFE94F84430022B10D0E8
:108FF000002084F8440002F0FFFB0DB0BDE8F083D0
:10900000A2F500517144081AC9E77846FFF75AFBE8
:10901000AEE704F14C0003F061FEE9E77846FFF7A4
:1090200051FBA2E7F03B0020B03B0020AC3B00200E
:1090300010B591F84430012B8CB00C4602D0784624
:10904000FFF740FB94F84D1031BB237B012B33D04D
:1090500094F84430012B02D07846FFF733FB01220D
:10906000236D8DF8042001A8029301F073F8154BCD
:10907000A06E1B6898470023A36604F12C0003F040
:109080002DFE94F84430022B11D0002084F84400C7
:1090900002F0B2FB0CB010BD0139002384F84D1072
:1090A00084F84C302046FFF7C3FC0CB010BD04F12F
:1090B0004C0003F013FEE8E72046FFF74FFF0CB02B
:1090C00010BD00BFAC3B00202DE9F0410C468CB038
:1090D000002952D02378002B46D02A492A4E08680E
:1090E000B4F814E000F00707FB00F5180130A5F80C
:1090F00002E0A269A5880860C2F30C00A8422ED342
:109100002A44101A334400255860E269D4F850808C
:1091100006F8375002F0010229465A7001A82C22A5
:1091200018F0A0F80F2301A88DF80430CDF80880BE
:1091300001F010F8154BA06E1B689847A56604F166
:109140002C0003F0CBFD94F84430022B10D000200B
:1091500084F8440002F050FB0CB0BDE8F081A2F5A9
:1091600000512944081ACDE77846FFF7ABFAB4E777
:1091700004F14C0003F0B2FDE9E77846FFF7A2FAEC
:10918000A8E700BFF03B0020B03B0020AC3B002034
:109190002DE9F843944C94F84430012B74D094F8A2
:1091A000B030012B00F08B8094F81C31012B00F0C3
:1091B000A48094F88831012B00F0BD808B4C8C4F3B
:1091C0008C4EDFF8508204F5D875237E022B05D033
:1091D0006C34AC42F9D10120BDE8F88394F8383002
:1091E000022BF5D114F8203CD4F81C90012BA4F1EB
:1091F0002C0000F0C28014F82C3C002284F83820A7
:10920000002B00F0B68014F8252C01231A4493405B
:10921000013B4B45DCD114F82C3C002B00F0DB80EB
:109220003A6854F8141C34F828CC34F8189C02F02E
:109230000700C30001323A60C1F30C0EF218E64594
:10924000A2F80290C0F0A2806144A1EB0E01334469
:1092500054F8102C596002F0010201215A7006F8EE
:109260003010D8F80030E06B98470023E3632046C5
:1092700003F034FD237E022B00F0B180002318465A
:10928000237602F0B9FAA3E72046FFF7D1FB0028C6
:1092900085D094F84430012B02D07846FFF712FABB
:1092A000237B012B00F09080534BDB68A36303F01A
:1092B0003BFEA16B01444D4803F03EFD6FE74F4874
:1092C000FFF7B6FB00283FF46FAF94F8B030012BE6
:1092D00002D07846FFF7F6F994F87830012B63D086
:1092E000454BDB68C4F8A43003F01EFED4F8A4108C
:1092F0000144434803F020FD56E74248FFF798FB3E
:1093000000283FF456AF94F81C31012B02D0784668
:10931000FFF7D8F994F8E430012B3DD0364BDB68E9
:10932000C4F8103103F000FED4F81011014436489F
:1093300003F002FD3DE73548FFF77AFB00283FF4D4
:109340003DAF94F88831012B02D07846FFF7BAF987
:1093500094F85031012B2FD0274BDB68C4F87C31B7
:1093600003F0E2FDD4F87C110144294803F0E4FC49
:1093700024E77846FFF7A6F945E74946FFF76CFD75
:1093800000287FF425AFD4F81C9034E7A1F50052F3
:109390006244A2EB0E015AE7174A94F8EE301169C5
:1093A000D26801FB0323BBE7134A94F882301169AA
:1093B000D26801FB032395E70F4A94F85A311169EB
:1093C000D26801FB0323C9E70B4AA37D1169D26868
:1093D00001FB03236AE77846FFF774F920E704F1FD
:1093E000200003F07BFC49E70C3C0020383C0020C7
:1093F000F03B0020B03B0020F43B0020783C0020F4
:10940000A43C0020E43C0020103D0020503D002002
:109410007C3D0020AC3B00202DE9F04FD47D8FB087
:1094200024B9FFF73DFA0FB0BDE8F08F94781646E7
:1094300007468E46002C4AD09C468D4B1B680193F4
:10944000002BF0D0DFF838B24FF00009DA46DAF836
:10945000045095B15BF839000378A34215D000F1B0
:109460000802002303E010F83310A1420ED00133AC
:10947000AB42904602F10802F5D1019B09F10109C6
:1094800099450AF1080AE2D1CDE78046D8F80430C0
:10949000002BC8D006F10C0292E803008DF80C40B6
:1094A000346A049707AAB78A0994B57D3478CDF851
:1094B00014E082E80300ADF81A708DF82850614678
:1094C0008DF8184003A898470FB0BDE8F08F062923
:1094D000A9D1C3788178674D027890F805C090F8DB
:1094E00004E040781B0443EA016395F844109201BC
:1094F00043EA0C0302F4FE52012943EA0E2342EA36
:10950000900269D095F8B040012C5BD095F81C1101
:1095100001294CD095F88811012984D1F189B5F839
:10952000580188427FF47FAFB5F84811914208BFD7
:1095300003247FF478AF6C2606FB04F605EB0608DF
:10954000D8F848701F43C8F84870002B50D0AB5D66
:10955000002B49D098F8072001231A449340013B7F
:109560009F424AD06C2707FB0457002387F84C30F2
:109570004046FFF75DFA97F84430012B02D0784659
:10958000FFF7A0F86C2303FB04531A7B012A62D077
:10959000394BDB686C2202FB04542C36A36303F0C6
:1095A000C3FCA16B0144A81903F0C6FB3BE7F0899B
:1095B000B5F8EC108842ADD1B5F8DC109142A9D1D4
:1095C0000224B8E7F089B5F8801088429ED1B5F83A
:1095D000701091429AD1AEE7F089A98A884291D160
:1095E000A98891428ED1A6E77846FFF76BF8B1E7DC
:1095F00040460321FFF7B2FC15E76C2303FB04533D
:1096000093F84430012B02D07846FFF75BF86C27C3
:1096100007FB045701233A6D049203A88DF80C3020
:1096200000F098FD154BB86E1B689847002306F1B3
:109630002C00BB66284403F051FB97F84430022B02
:1096400010D06C2303FB04540023184684F84430E4
:1096500002F0D2F8E7E6084A9B7D1169D26801FB67
:10966000032397E706F14C00284403F037FBE8E7B3
:10967000983B00200C3C0020F43B0020AC3B002039
:109680009C3B0020F8B5EFF3108372B619481A4AD4
:109690001A4C1B490460116003B962B64FF4D872CA
:1096A00000211848184F194E17F0DCFD002406F071
:1096B00013FB174B17481C602146402217F0D2FDC0
:1096C000154B164A1A6004254CF2503208211448F2
:1096D0009C755F60DE601D759A601A61597504F0B3
:1096E000CFF8104B104A1C601060BDE8F8400F48DE
:1096F00006F0E6BBA43B0020AC3B002011120400A6
:10970000211204000C3C0020F049020020A10700B7
:10971000F03B0020B03B0020F43B002080969800F6
:1097200091910200983B0020A83B0020C1870200D5
:109730002DE9F04F9BB0B0B1AAB190460DF10809E8
:1097400004460E464846002108221F4617F08AFDAF
:109750004946B8F802000CF0BBF848B90025284685
:109760001BB0BDE8F08F0E2528461BB0BDE8F08F7A
:10977000D8F81020D8F80C10B8F8080002F0010250
:1097800006F0EEFA82460028E8D1D8F81020D8F882
:109790000C10B8F8080002F0010206F0ADFA054618
:1097A000002840F0E5800DF11C0A41461822504681
:1097B00017F04DFD23789DF8271003F08002101C50
:1097C00018BF01208DF81000002900F0108103F06F
:1097D0007F038DF812308DF81150A2B1A078637814
:1097E000E178C2009B0102F0180203F4FE5342EA42
:1097F000511243EA900301F01F01ADF814308DF8C7
:1098000016208DF8171099E803004FF000088AE839
:109810000300CDF8348003F0F1FF9DF81030002BE9
:1098200000F0DE80DFF8A0A5BDF824209AF84430CF
:10983000022B00F0F3809AF8B030022B00F0108178
:109840009AF81C31022B00F013819AF88831022B10
:1098500000F01581BDF814304FF000080A99DFF8C8
:109860006C950B98C1F30C0E9E4538BFA1F50051C5
:10987000A1EB0E010B44D9F804108B4200F001005B
:1098800000F01281D9F80C108B4200F00181D9F858
:1098900014108B4200F03881D9F81C108B4200F074
:1098A0002781D9F824108B4200F01681D9F82C10AA
:1098B0008B4200F00581D9F834108B4200F03081E2
:1098C000D9F83C1099426BD0B8F1000F00F07481C8
:1098D00098F84430022B02D07846FEF7F3FEDFF80A
:1098E000F0B4DBF80010009103F01EFB009908F1C2
:1098F0002C0A0144504603F01FFA98F80C30012B53
:1099000000F01E819DF816E0D8F84830012202FAD6
:109910000EF2134229D198F8071013437145C8F885
:109920004830A6F1040200F03C819DF82730002B5E
:1099300000F02681082A40F02581D8F86800082325
:10994000211D03FB0E0017F082FC98F80030D8F8B8
:109950004840002B00F0B78198F8072001231A44F3
:109960009340013B9C4200F0598103F069FFFBE604
:1099700051460FA82C22B8F8086098F8104017F04C
:1099800071FC9DF84230ADF8406064F300030E2294
:109990000FA88DF842308DF83C2000F0DBFBE3E6A9
:1099A000B9F83A3093428FD199F83930834208BFE1
:1099B000072389D119F83330002BD6D09DF8103009
:1099C000002B00F0B9809DF81C30012BCDD19DF803
:1099D000172001329340591E04A8FFF73DFAC4E74F
:1099E0003B46711E601C04AAFFF716FDBDE7C3F3DA
:1099F000801003F03F011B068DF812008DF8131044
:109A000008D594F90130002BACBF042308238DF84E
:109A10001130E2E604238DF81130F4E6BAF8143080
:109A200093427FF408AF6C2303FB08A8BDF8143001
:109A3000B8F804108B4298D37FF610AF404605214A
:109A4000FFF78CFA9DF81080B8F1000F40F08B8181
:109A50007846FEF737FEBDF82420BDF81430FDE649
:109A6000BAF8803093427FF4EBAE4FF00108DAE7AA
:109A7000BAF8EC1091427FF4E8AE9846D3E7BAF812
:109A80005831934208BF4FF003087FF4E3AECAE7B2
:109A9000B9F80A1091427FF4FAAE99F809108142A0
:109AA0007FF4F5AE012385E7B9F8021091427FF407
:109AB000E9AE99F8011081427FF4E4AE002379E722
:109AC000B9F82A1091427FF4F6AE99F82910814234
:109AD0007FF4F1AE05236DE7B9F8221091427FF4CF
:109AE000E5AE99F8211081427FF4E0AE042361E7EE
:109AF000B9F81A1091427FF4D4AE99F81910814246
:109B00007FF4CFAE032355E7B9F8121091427FF4EA
:109B1000C3AE99F8111081427FF4BEAE022349E72B
:109B2000B9F8321091427FF4CBAE99F831108142EE
:109B30007FF4C6AE06233DE77846FEF7C3FD42E755
:109B400098F86430002B7FF4DDAE98F84430022B97
:109B500002D07846FEF7B6FD9BF81530DBF808100A
:109B6000DBF8042001FB032B03F0DEF90BEB000113
:109B700008F14C0003F0E0F8012388F86430C1E6F6
:109B80000C2A0AD040460421FFF7E8F9EDE603EB82
:109B9000430302EB8303A8F84630D8F868000C238F
:109BA000CEE69DF827101FFA8EF30029EFD002EBC6
:109BB000C303A8F84630C0E69DF817B09DF82730DB
:109BC0000BF1010B002B78D10C2303FB0BF300935B
:109BD0004FF4C073009A93420DD34FF0000B6C22E8
:109BE00002FB0BA898F84430002B75D00BF1010B49
:109BF000BBF1040FF4D19DF81C30012B67D00FA8E6
:109C00002C22002117F02EFB0F2202230FA88DF823
:109C10003C208DF8443000F09DFAA6E698F80C3010
:109C20000222012B88F8642000F0B1803B464246B6
:109C3000B8F84610D8F86800FFF7EEFB98F8003047
:109C4000002288F86420002B00F09D805949D8F844
:109C500018300A68B8F80460B8F8147002F0070405
:109C6000E00001320A6009EB0002C3F30C01B142CB
:109C70005780C0F0838033445B1AD8F81C104E4ED6
:109C800009EB000201F001015360517001223368B9
:109C900009F83420D8F8680098470023C8F86830DD
:109CA000504603F01BF898F84430022B61D0002096
:109CB00088F8440001F0A0FD57E64FEACB0300937B
:109CC0004FF4807386E77846FEF7FCFC44E60021FB
:109CD00004A8FFF7C1F892E7D8F8682012B17846D7
:109CE000FEF7F0FC354A0098126890476C2202FBA0
:109CF0000BA30193986600283FF47DAF2C2204A9A2
:109D0000404617F0A4FA0A9A019BBDF814E0BDF88A
:109D10000010A3F84610C2F30C00002170459964AE
:109D200024D2A2F5005171440A1A6C2101FB0BAA3E
:109D3000234B2449CAF834306FF001004FF0000E75
:109D4000CAF82800CAF81820CAF85C80CAF83C8013
:109D500001208AF864E0CAF8541001F04DFD022396
:109D60008AF84430B4E5BDF8242073E57244121A31
:109D7000DBE708F14C0002F0B1FF98E7A3F50052D1
:109D80003244531A79E77846FEF79CFC5EE7D8F830
:109D900048104046FFF760F83B4604464246B8F894
:109DA0004610D8F86800FFF737FB002C7FF4DDADD4
:109DB00044E700BFF03B0020AC3B0020A43B002068
:109DC000C9900200298F02000C3C0020B03B00200B
:109DD000F43B0020002843D0F0B504698DB0002C7E
:109DE0003BD0C369002B38D08569002D35D05A7817
:109DF0008DF807201A78017B0A93022982F001036B
:109E00008DF806302ED0002930D10423C27A868AFC
:109E100019460B278DF80510002A30D1BE422EDCE2
:109E200008293CD0034603C81F898DF8042004AAE2
:109E300082E803009A7A1B6A099500213846ADF83A
:109E400018708DF81B108DF81A200B9302F04CF847
:109E5000012826D010200DB0F0BD0E200DB0F0BDB1
:109E60000E207047194B9B7D002BCED00823C27A61
:109E7000868A194607278DF80510002ACED033446C
:109E8000134A0B3382FB0312DB43DB0FC3EB62038A
:109E900000228DF80A208DF80B300122C2E707203E
:109EA000DCE79DF81030002BD4D0022B09D09DF9AF
:109EB0001A30002BF3DB3246214601A8FEF78AFE5A
:109EC000CCE7059B002BF2D1C4E700BFF43B002098
:109ED000ABAAAA2A78B1F0B544688DB044B18569BF
:109EE00035B1037C13F0FD0F07D110200DB0F0BD8C
:109EF0000E200DB0F0BD0E20704703781A0601D574
:109F00000720F3E786688DF806300B2E4FF000032C
:109F10000A9301D8077B47B1F31DDB08013B002200
:109F20008DF80B308DF80A200127034600F110024E
:109F30008C4692E80300DA8993F81CE08DF80470EF
:109F400004AB83E803000021012310460995CDF8F6
:109F50002CC0ADF818208DF81AE08DF805108DF89A
:109F60001B3001F0C1FF0128BFD19DF81030002B3C
:109F7000BBD0022B09D09DF91A30002BC0DB324632
:109F8000214601A8FEF726FEB0E7059B002BF2D183
:109F9000ABE700BF49B1A0F59670072859D8DFE8B4
:109FA00000F00B15212C38444C060E2070474B68EE
:109FB000012B4AD9072070474A68274B2749134489
:109FC0008B42F7D8264B00201A6070474A68254913
:109FD000A2F51233A3F5F8738B42EBD8204B002087
:109FE0005A6070474A682049A2F54343503B8B4270
:109FF000E0D81B4B00209A6070474A681B49A2F5C5
:10A000004333A3F5A0738B42D4D8154B0020DA60FC
:10A0100070474A681549A2F54333A3F5A0738B42F4
:10A02000C8D80F4B00201A6170474B689A1EFD2A52
:10A03000C0D80B4A0020137570474B685A1E7E2A01
:10A04000B8D8074A002053757047054A0020937519
:10A0500070470520704700BF806967FF80778E06D4
:10A06000F43B0020904C960030D397004089950037
:10A0700089B138B50D46044608220021284617F05C
:10A08000F1F8A4F5967007282FD8DFE800F00B1040
:10A09000151A1F2429060E207047154B9B7D6B60F7
:10A0A000002038BD124B1B686B60002038BD104B80
:10A0B0005B686B60002038BD0D4B9B686B600020B7
:10A0C00038BD0B4BDB686B60002038BD084B1B694B
:10A0D0006B60002038BD064B1B7D6B60002038BDD7
:10A0E000034B5B7D6B60002038BD052038BD00BF91
:10A0F000F43B002010B370B4144E0546306810B124
:10A10000042070BC704799B16B68EBB12B781A06CC
:10A1100018D4ABB12B46024607E0DC68A4B11C7A28
:10A1200014F0800F0ED1083354B101329142F4D1B2
:10A13000074B01221D6059603260E2E70E20704734
:10A140000F20DEE70B20DCE70E20DAE7983B00204B
:10A150009C3B0020F8B5054648B3174F3C6894B1C6
:10A16000164E0123337001E024684CB12379002B93
:10A17000FAD154F8043C284698472468002CF5D1BD
:10A180003378022B00D0F8BD396869B10A4D01E07F
:10A1900021464CB10B790C68002BF9D0284604F00D
:10A1A00047FB2146002CF5D100233370F8BD7846DB
:10A1B000FEF788FAD1E700BFC03D0020BC3D00207B
:10A1C00010B5044638B100232372211D0448BDE8B0
:10A1D000104004F0FFBA7846FEF774FAF3E700BFC8
:10A1E000C03D002010B5044678B10A4A1378013BFF
:10A1F000012B05D9211D0848BDE8104004F018BB0B
:10A20000022101231170237210BD7846FEF75AFA1D
:10A21000EBE700BFBC3D0020C03D002070B5054607
:10A2200016460C46002949D000284CD0B4F1005FF6
:10A2300034D94FF08053D3F80C3103F50023B4EB3D
:10A24000832F2ED2731E2344B3F1005F16D94FF033
:10A250008052D2F80C2102F50022B3EB822F10D2EB
:10A26000042E02D87846FEF72DFA0023321F2E80E6
:10A27000AC606B80AB802280A37070BDB3F5000F23
:10A2800008D94FF08052D2F80C2102F50052B3EBFE
:10A29000822FE5D37846FEF715FAE1E7B4F5000F13
:10A2A00008D94FF08053D3F80C3103F50053B4EBC9
:10A2B000832FC7D37846FEF705FAC3E77846FEF743
:10A2C00001FA002DF6D17846FEF7FCF9AEE700BFA3
:10A2D00038B50446002830D0A36862881A449278C2
:10A2E000012A25D0A2881344EFF3108172B69A7820
:10A2F000032A07D0A26800239370C4F8023001B982
:10A3000062B638BDA06825881B1A9AB2043D825AED
:10A31000073222F0030213449BB2AB428CBF0022EF
:10A320001A46104488BF1346002263808270E6E715
:10A330007846FEF7C7F9A368D4E77846FEF7C2F976
:10A34000CAE700BF70B50E461546044610B32EB3DB
:10A350006288A36813449B78012B17D00DB909209C
:10A3600070BD2288131F9BB29D42F8D86188A088D7
:10A37000EB1D23F0030381429BB213D31DD9521A64
:10A380009A4212D2834222D9042070BD7846FEF749
:10A3900099F9E3E77846FEF795F9D8E77846FEF7AE
:10A3A00091F9D5E7401A8342EEDCA2685318555262
:10A3B00001249C703360002070BDA2681044837833
:10A3C000002BE1D193701946C4F80230EDE7032A5F
:10A3D00003D9A3680B4404229A7000216180E4E74A
:10A3E00070B50D461646044600282FD0002D31D0FA
:10A3F000AB78012B02D07846FEF764F92B88B34284
:10A400001BD3FEB102232E80AB706388A168208825
:10A41000CA5A073222F0030213449BB2021F93422E
:10A4200088BF0022A0888CBF13461A4698426380DA
:10A4300002D0114400238B7070BD7846FEF742F9BC
:10A44000002EDFD17846FEF73DF9DBE77846FEF7D0
:10A4500039F9CBE77846FEF735F9C9E710B5044678
:10A4600082B0B8B1E1B1A288A36813449A78022AF5
:10A470000AD0032A02D0052002B010BD7846FEF7AC
:10A4800021F9002002B010BD032200209A700B6059
:10A4900002B010BD01917846FEF714F90199E1E789
:10A4A00001917846FEF70EF90199DCE710B50446F4
:10A4B00048B1A288A36813449878A0F10200B0FACA
:10A4C00080F0400910BD7846FEF7FCF8F1E700BFC8
:10A4D00010B50446E0B1A168A3880B44987803281E
:10A4E00010D12488043C5A1A93B2CB5A073323F074
:10A4F000030313449BB2A34288BF00230B44987804
:10A500000328F0D0A0F10200B0FA80F0400910BD9D
:10A510007846FEF7D7F8DEE738B50D460446002842
:10A5200034D0002D39D0AB78012B24D0032B1DD192
:10A53000A288A36813449D4202D07846FEF7C2F871
:10A540000020A870A388A1682588CA5A073222F083
:10A55000030213449BB22A1F934294BF184603463A
:10A560000144A3808B78042B14D038BD7846BDE815
:10A570003840FEF7A7B86288A36813449D4202D012
:10A580007846FEF79FF80023AB7038BD7846FEF79B
:10A5900099F8C6E70023A38038BD7846FEF792F805
:10A5A000C1E700BF10B50A4B0A4ADB6884B0022439
:10A5B000019369464FF4805301208DF800400293C7
:10A5C00001F0C2FBB0FA80F0400904B010BD00BF3A
:10A5D000C43D0020E03D002010B50A4B0A4A1B682C
:10A5E00084B00224019369464FF4805301208DF812
:10A5F0000040029301F0A8FBB0FA80F0400904B0DB
:10A6000010BD00BFE43D0020E03D002070B50D4BC3
:10A610000D4D1B68E9680D4A84B001240191043393
:10A6200040F6FC762046694603938DF8004002967A
:10A6300001F08AFB18B920462C7604B070BD0020CA
:10A6400004B070BDE43D0020C43D0020E03D00208A
:10A6500030B50A4B0A4D1B680A4A85B004240193A1
:10A660000123184669468DF800300395029401F0E5
:10A670006BFBB0FA80F0400905B030BDE43D00202E
:10A68000D03D0020E03D0020F0B5124E124FF168A1
:10A690003B680D78114A85B00124043303912046AC
:10A6A0006946029501938DF8004001F04DFB68B9B1
:10A6B0003A68F36805F0FC050435154475611A78AD
:10A6C000707613442046336105B0F0BD002005B01C
:10A6D000F0BD00BFC43D0020E43D0020E03D00206F
:10A6E00070B5174DEB68187884B003F580511844A5
:10A6F0004FF6FF7205F0A4FBF0B1EB681A78134433
:10A70000984219D06E7E0F490F4B01900124002E04
:10A7100008BF0B460D4A03930426204669468DF870
:10A720000040029601F010FB18B920462C7604B0C8
:10A7300070BD002004B070BD012004B070BD00BF2A
:10A74000C43D00202019040024190400E03D00202D
:10A75000F0B5144DEB6818795A79801A00F57F200E
:10A7600000F6FF70040385B005D003F58053EB605D
:10A77000032005B0F0BD0C4B0C4F1B680193012664
:10A7800004230B4A8DF80060304669460397029314
:10A7900001F0DAFA18B902202E7605B0F0BD204695
:10A7A000E7E700BFC43D0020E43D0020E83D002075
:10A7B000E03D002010B50E4CE368187803F5805199
:10A7C0001844002205F03CFB08B1012010BDE268EE
:10A7D000137951795B1A03F57F2303F6FF731B038B
:10A7E00001D1022010BD02F58052E260032010BDAD
:10A7F000C43D002070B5254CE368002B42D0237E79
:10A80000002B34D16368092B37D8214D55F82330FC
:10A81000984702284FF0000619D0032800F0FD03E6
:10A8200019D0012802D0012B08D070BD6368013314
:10A83000092B636002D97846FDF744FF237E002B85
:10A84000F3D1636855F8233098470228E5D1217E7B
:10A8500019B1207070BD6660F0E7A4680B481C2237
:10A8600016F000FD2046BDE8704004F093BF784626
:10A87000FDF728FF6368092BC7D97846FDF722FF4B
:10A880006368C2E77846FDF71DFFB8E7C43D0020C6
:10A89000A01804000B78032B04D0104B1A78012A5F
:10A8A00016D070470D4803780022012B027612D093
:10A8B000022BF6D10B78032BF3D110B58468114627
:10A8C0001C2216F0CFFC2046BDE8104004F062BF09
:10A8D0001B7E002BE5D1FFF78DBF00BFC43D0020DC
:10A8E0002DE9F04F4F4BDB681A7993F805A0511E04
:10A8F0008A4585B05AD003F58051DFF838810D784C
:10A90000D8F800400D44A2EB0A0A6A882179501E4B
:10A910000F4680B247F6FE61884203EB0A3A51D8EF
:10A92000231D39461944404C0E46D8F800103046D5
:10A9300001F5805105F084FA0646002836D03B4FD9
:10A9400003970123374F3A4A01954FF0040E1846FA
:10A9500069463B768DF80030CDF808E001F0F4F957
:10A96000002858D1AB4647F6FE6909E09A459B4658
:10A970001CD9AB421AD95A88501E80B248451FD9FB
:10A98000BBF80030B3B10BEB83030BEA040233EAEC
:10A99000040102F5805204D0BBF80200B0F5FE4F6E
:10A9A000E4D1137813449A459B46E2D8012005B0C0
:10A9B000BDE8F08F7846FDF785FEBBF80030E2E792
:10A9C0001D46B2E7DFF860B00E46A94609E09A4599
:10A9D0009946EBD99D42E9D25A88501E80B2B042C6
:10A9E0001DD9B9F8003083B109EB830309EA0B02E2
:10A9F00033EA0B0102F5805204D0B9F80200B0F539
:10AA0000FE4FE4D113781344E1E77846FDF75AFE90
:10AA1000B9F80030E8E7002005B0BDE8F08F1D462A
:10AA20007EE700BFC43D002000F0FFFF1C190400BA
:10AA3000E03D0020E43D00202DE9F04F6C4F3B69E4
:10AA400087B0002B00F0CB807B69002B00F0CB801F
:10AA50007B7E002B3BD1674ED7F810A0F868BAF880
:10AA600002307C6990F805B00179013B04EA0602E6
:10AA70009BB247F6FE65A1EB0B01121BAB4200EB4C
:10AA8000013B02F580582BD954460AE09B451C46F1
:10AA90001BD99A4519D25988013989B2A94240F285
:10AAA00091802388BBB104EB830304EA060133EAF7
:10AAB000060201F5805103D06088B0F5FE4FE5D164
:10AAC0000B780B449B451C46E3D801237B76012081
:10AAD00007B0BDE8F08F7846FDF7F4FD2388E2E784
:10AAE000DA4571D2BAF8002093009845EFD955465F
:10AAF0005446994647F6FE61EAB1234433EA06021A
:10AB000024D06088B0F5FE4F20D01C465C4524D28E
:10AB10002288930003EB090CE04530D984EA0A004F
:10AB2000304225462BD16088013880B2884226D831
:10AB3000E146002AE1D101917846FDF7C3FD228864
:10AB400001999300234433EA0602DAD1354005F532
:10AB500080552C782C445C45DAD3B9F1000F19D11B
:10AB60000123002CB1D0618847F6FF729142ACD02E
:10AB70007A7E002AABD1002B3FF46EAFA7E7B9F184
:10AB8000000F07D1628847F6FF739A429FD10123D5
:10AB90007B769CE701257B69174ACDF814A02846EF
:10ABA00002A9CDF810908DF80850039301F0CCF86D
:10ABB00088B97B6929F003094B447B613CB13C6156
:10ABC0000023CEE79A468DE754460123C9E778462D
:10ABD000FDF778FDF3E7002007B0BDE8F08F784679
:10ABE000FDF770FD30E77846FDF76CFD30E700BFFC
:10ABF000C43D002000F0FFFFE03D002038B54FF0DD
:10AC000010235A69013201D05A6992B94FF080522B
:10AC10005169136903FB01F3A3F580530F491A68C7
:10AC20000B60531E033302D8C2F30B032BB1002079
:10AC300038BD5B69A3F58053EEE7094D0949EA6029
:10AC40000124052220462B766B76AB606A602C705F
:10AC500001F06AF8FFF7CEFD204638BDE43D002044
:10AC6000C43D002095A80200024B1878003018BFA0
:10AC700001207047C43D002070B50F4C2378054675
:10AC8000B3B92B78032B02D07846FDF71BFD0122C8
:10AC9000EE680A49A56000231046E66022706360F2
:10ACA0002376637601F040F8BDE87040FFF7A2BD5F
:10ACB0007846FDF707FDE4E7C43D002095A80200B3
:10ACC000014B1868704700BFE43D002010B50446F2
:10ACD000A0B163686BB123685BB1A3684BB15A1E26
:10ACE0001A4202D07846FDF7EDFC0023E3602361B1
:10ACF00010BD7846FDF7E6FCA368F0E77846FDF75F
:10AD0000E1FCE6E770B528B121B183682BB90925CC
:10AD1000284670BD0E25284670BDEFF3108572B62B
:10AD200083680269C6681A44B24203D185B962B623
:10AD30000425EDE7044605C8013B334002FB030050
:10AD400016F085FAE3680133E3601DB962B6DFE708
:10AD50000425DDE70025DBE770B5E8B1836813B9AA
:10AD60000925284670BDEFF3108572B60369C268E5
:10AD7000934214D00446084641B194E84600013E8F
:10AD8000334002FB031116F062FA23690133236199
:10AD90004DB962B6284670BD0E25284670BD25B94E
:10ADA00062B60525DDE70025DBE70525D9E700BF0D
:10ADB000C0F30B030BB11020704709B9092070478D
:10ADC000114A01F6FF710223090BC2F80435D2F8CB
:10ADD0000034002BFBD061B10B4A00EB0131C2F80B
:10ADE0000805D2F80034002BFBD000F580508842D3
:10ADF000F5D1054A0023C2F80435D2F80034002BFF
:10AE0000FBD00020704700BF00E0014040EA010392
:10AE10009B0701D0102070470AB90920704793079B
:10AE2000FBD110B4134C01239208C4F80435D4F8B4
:10AE30000034002BFBD082B10E4C043900EB8202AF
:10AE400051F8043FB3F1FF3F04D00360D4F800345D
:10AE5000002BFBD004309042F2D1064A0023C2F806
:10AE60000435D2F80034002BFBD000205DF8044BF1
:10AE7000704700BF00E0014010B5104C4FF4805205
:10AE80000021204616F0EEF90D4A04F1300314605B
:10AE900004F57F602821002223F8301C23F82E2C93
:10AEA00043F82C3C30338342F6D13823A4F8C22F28
:10AEB000C4F8C42FA4F8C03F10BD00BFEC3D002073
:10AEC000EC4D00202DE9F84F03314FF6FC760E4093
:10AED000771EBBB2B3F5BE7F02D30920BDE8F88F61
:10AEE000EFF3108B72B6DFF874A1DAF80050002D82
:10AEF00068D081460021DFF8688104E06B68002B90
:10AF000060D029461D462C88A6422CD908342C44F2
:10AF10004445F3D26388002BF0D1DAF80000844274
:10AF200065D058B143689C4208BF03460DD02BB191
:10AF30005A68944209D01346002BF9D17846FDF7A0
:10AF4000C1FB002362685A60FFDE62685A60854276
:10AF50003FD08C423FD02B882288083313442B806B
:10AF60002B460D46CDE73B483B4A80FB0730FB179D
:10AF7000C3EB20130133A2FB0402B3EB521F13D324
:10AF800001236B806B68002935D04B60BBF1000F4B
:10AF900000D162B6DAF800309D4251D00835C9F8C8
:10AFA00000500020BDE8F88F03EB8303DB009BB269
:10AFB0009C42E5D025D2BBF1000F1FD162B607201D
:10AFC000BDE8F88FBBF1000F00D162B60420BDE8E8
:10AFD000F88F0021BFE770B341688D4208BF01467A
:10AFE000B9D041B34B689D42B5D01946F9E76068C6
:10AFF000CAF80000ABE7CAF80030C7E70720BDE891
:10B00000F88FE21A082AD6D9EFF3108672B6C3F584
:10B010007F4203F10800F83214442A182B802C5286
:10B02000002353806B887BB96B6853606A60002E85
:10B03000A6D162B6A4E77846FDF744FB00218AE773
:10B040007846FDF73FFBA9E7DAF800305360CAF80D
:10B050000020ECE767666666CDCCCCCCEC4D0020DA
:10B06000EC4D0020144B984270B5044603D203F512
:10B07000805398421CD2A4F10806EFF3108572B6F3
:10B0800034F8063C012B02D07846FDF71BFB00216B
:10B0900034F8082C24F8061C204616F0E3F8074B79
:10B0A0001A6844F8042C1E600DB962B670BD70BDFC
:10B0B0007846FDF707FBDEE7EC3D0020EC4D002075
:10B0C00008B508220221094804F076F840B1084A80
:10B0D00091684160127B0272BDE8084004F0B0B88C
:10B0E0000448BDE8084004F02BBB00BFF44D00202D
:10B0F0003C4E0020F82D002010B5044618B1234620
:10B10000BDE8104018477846FDF7DCFA2346BDE855
:10B110001040184710B586B018220021684616F076
:10B12000A1F80023029304F061FB0122A0F58054F2
:10B13000064B0748009469460192039304F0F8F81F
:10B1400010B1044804F0FCFA06B010BD59B1020079
:10B15000F44D0020082E002030B50C468DB022B9E9
:10B160004B88012B19D00DB030BD032A02D0784690
:10B17000FDF7A8FA01A82C22002116F073F80D4B58
:10B180000394D9681A690591102301A806928DF8D5
:10B190000430FEF7DFFF0DB030BD074D2B7813B93B
:10B1A0007846FDF78FFA054B62685A6000232B70D2
:10B1B0000DB030BDF44D0020504E00203C4E00201C
:10B1C00038B50E4D2B7833B90D4B5C6804F500543F
:10B1D000B4F1807F00D938BD04220121094803F071
:10B1E000EBFF30B1012344602B70BDE8384004F020
:10B1F00027B80548BDE8384004F0A2BA504E0020F8
:10B200003C4E0020F44D0020E82D002038B50121EF
:10B21000174804F041F820B90221154804F03CF821
:10B22000D0B1144804F08CFA134C237803B138BD24
:10B23000124B5D6805F50055B5F1807FF7D8042203
:10B2400001210B4803F0B8FF60B101234560237072
:10B25000BDE8384003F0F4BF01461422074816F059
:10B2600001F8E1E70648BDE8384004F069BA00BFDC
:10B27000F44D0020182E0020504E00203C4E00209F
:10B28000E82D0020F0B5554C8DB002F0B7FA657B83
:10B29000002D2FD0A37B002B35D1228A41F282636F
:10B2A0009A422CD9227B00236373002A31D0012AD1
:10B2B0003DD10CA80226A26800F82C6D04922360F0
:10B2C0006360237323828DF808300393FEF742FFF7
:10B2D00031460822424803F06FFF002872D0A2686E
:10B2E0004260227B027203F0ABFF3E4E3378002BAC
:10B2F00056D01D4602F0A4FA28460DB0F0BD3A4BD8
:10B300001B78002BCED102F09BFA002528460DB009
:10B31000F0BD02F073FA237B8BB102F091FA78460C
:10B32000FDF7D0F902F08CFA28460DB0F0BD784652
:10B33000FDF7C8F902F084FA28460DB0F0BDA37BF2
:10B34000002BEAD1228A41F282639A4203D8264B2B
:10B350001B78002BE1D0A368214801330127002688
:10B3600008220221A3602773268203F025FF0346EB
:10B3700080B3A2685A60227B1A7203F061FF0CA8A6
:10B38000022300F82C3DA368227B8DF80820013BA6
:10B39000002204930392FEF7DDFE02F051FAA9E7C2
:10B3A000646804F50054B4F1807FA3D8042201211D
:10B3B0000B4803F001FF48B101234460337003F0F0
:10B3C0003FFF97E7094804F0BBF98EE7084804F00F
:10B3D000B7F98FE7054804F0B3F9D0E73C4E0020F9
:10B3E000F44D0020504E0020514E0020F82D00203A
:10B3F000E82D00200378042B00D0704743681B78A9
:10B40000002BFAD0F0B5374C4569227B017E8DB018
:10B410000346002A36D1628A002A3BD10129A1685D
:10B4200043D14A1C954239D92A318D4228D8A67B6E
:10B4300036BBDFF8C4E02C489F6826600822022152
:10B44000A560666066732673C4F810E003F0B4FE6E
:10B4500000283FD0A2684260227B027203F0F0FE17
:10B46000224D2B7823B30CA8022300F82C3D103773
:10B47000227BA36803978DF808200493FEF76AFEE9
:10B480000DB0F0BD012AFBD10129F9D0A3689D427E
:10B49000F6D105E00129F3D1A2680132AA42EFD129
:10B4A00001236373FFF7EEFEEAE78D42BCD8E7E7BE
:10B4B000666806F50056B6F1807FD4D804220121D3
:10B4C000094803F079FE48B1012346602B7003F070
:10B4D000B7FEC8E7064804F033F9C1E7054804F0B1
:10B4E0002FF9C0E73C4E0020F44D0020504E0020C4
:10B4F000F82D0020E82D00200000062D10B5194C75
:10B50000227BD2B1012A0AD07846FDF7DBF8238AE4
:10B5100001332382638A7BB1013B638210BD238A9E
:10B5200041F282618B4215D942F2B0118B4215D99A
:10B530006273FFF7A7FEEDE710BD238A41F2826236
:10B54000934202D9FFF79EFEE4E7074A1278002AE9
:10B55000F8D1DDE7044A1278002AD9D0FFF792FE2D
:10B56000238AD5E73C4E0020514E002070B504F0F0
:10B5700001F940B902F030FA0028F8D020BF04F0F9
:10B58000F9F80028F6D002F039F9002211463848BF
:10B5900003F06EFD00284FD00026354C354608E0FC
:10B5A000022B00D1051D02460021204603F060FD5C
:10B5B00050B14388012BF3D1061D024600212046DD
:10B5C00003F056FD0028F4D1002D35D0002E33D0E5
:10B5D000284C2B68A3602B792373B54209D83368B4
:10B5E0002360254D63602A78EAB1BDE8704002F01F
:10B5F00027B92B79002BF2D11F4D20602B7860608A
:10B60000002BF2D14FF4005404220121184803F01A
:10B61000D3FD48B3446001232B7003F011FEBDE855
:10B62000704002F00DB903F50054B4F1807FEBD9FE
:10B63000BDE8704002F004B90E4C0D48002308220A
:10B6400002212360A360237303F0B6FD38B1A26822
:10B650004260227B027203F0F3FD2368C1E70748D2
:10B6600004F06EF82368BCE7054804F069F8BCE70D
:10B67000F44D00203C4E0020504E0020F82D0020BC
:10B68000E82D002008B504F0B1F8A0F5805008BD01
:10B6900070B5142286B000211848194C194E15F0C7
:10B6A000E1FD01F041FC184B184960601848194A47
:10B6B000A060002518461A600D70E660256165617E
:10B6C00000F068FD204601F0D7FA294618226846A6
:10B6D00015F0C8FD029504F089F80122A0F5805408
:10B6E0000D4B0E48009469460192039303F020FE2F
:10B6F00010B10B4804F024F806B070BD3C4E002099
:10B70000184E002000879303304E0020514E002039
:10B71000FDB40200F5B3020059B10200F44D00205F
:10B72000082E0020F8B52E4C94E80C009A4216D250
:10B730000646257B2B492C48012D18BF0146914216
:10B7400026D9A3F1400191422BD9EFF3108072B6B4
:10B7500023685A1C2260336030B962B6F8BD234DAD
:10B760002A781AB10F20F8BD0020F8BD03F5005467
:10B77000B4F1807FF6D8042201211D4803F01CFD9E
:10B7800020B3446001232B7003F05AFD0F20F8BD55
:10B7900001236373FFF776FD0028D6D194E80C00EF
:10B7A000CFE7124F3A78002ACFD103F50055B5F113
:10B7B000807FCAD8042201210D4803F0FDFC50B15E
:10B7C000012345603B7003F03BFDBEE7094803F0F1
:10B7D000B7FF0F20F8BD074803F0B2FFB5E700BF81
:10B7E0003C4E002000E0FF00FFFF7F00504E002095
:10B7F000F44D0020E82D0020002855D170B55B4C99
:10B8000023688CB0002B57D0013B23600BB10CB0E8
:10B8100070BD574CA37301F0F1FF637B002B3FD049
:10B82000A37B002B3CD1228A41F282639A4250D9F9
:10B83000227B00236373002A50D0012A45D10CA833
:10B840000225A26800F82C5D0492236063602373D4
:10B8500023828DF808300393FEF77CFC29460822EA
:10B86000444803F0A9FC002873D0A2684260227B00
:10B87000027203F0E5FC404D2B788BB9646804F547
:10B880000054B4F1807F0BD804220121394803F021
:10B8900093FC002861D0012344602B7003F0D0FC9E
:10B8A00001F0CEFF0CB070BD304A31491368012061
:10B8B00003441360887370477846FCF703FF2368DE
:10B8C000013B2360002BA2D1A3E77846FCF7FAFEE8
:10B8D000E6E72A4B1B78002BAAD1E1E701F08EFFA7
:10B8E000237B2BB101F0ACFF7846FCF7EBFED7E7EA
:10B8F000A37B002BF6D1228A41F282639A4203D8BD
:10B900001E4B1B78002BEDD0A3681A48013301268B
:10B91000002508220221A3602673258203F04CFC37
:10B920000346F0B1A2685A60227B1A7203F088FCC9
:10B930000CA8022300F82C3DA368227B8DF8082078
:10B94000013B002204930392FEF704FC01F078FF10
:10B95000A6E70B4803F0F4FE8DE70A4803F0F0FE7B
:10B960009EE7074803F0ECFEE2E700BFF04D002041
:10B970003C4E0020F44D0020504E0020514E00203F
:10B98000F82D0020E82D002010B58CB00CAB03245E
:10B9900003F82C4DADF8080018468DF810200391DF
:10B9A000FEF7D8FB0CB010BD014B9868704700BF84
:10B9B0003C4E0020034B1A7B9868012A08BF00F117
:10B9C000FF3070473C4E0020044B9B685840C20734
:10B9D00048BF03F1FF331846704700BF3C4E0020BC
:10B9E000014B187B704700BF3C4E00202DE9F84307
:10B9F000204CDFF884904FF000080221204602F02E
:10BA000009FE5FFA88F70546D0B1002654F8043CD9
:10BA10002946384613B134F80C2C984734F80C3CBE
:10BA200001330221204624F80C3C02F01DFE0221C5
:10BA3000204602F0EFFD013605460028E6D14EB95A
:10BA400008F10108B8F1030F04F1BC04D5D10120BD
:10BA5000BDE8F8830146204602F02CFE0828EFD10D
:10BA600054F8043C002BEBD02A4638464946984708
:10BA7000E6E700BF684E0020C81804002DE9F04F2B
:10BA8000804B1B7883B00D46002B40F0E18001F124
:10BA90000C030646012118460193D5F8A87002F060
:10BAA000B9FD8346002800F0E880DFF8EC91DFF86C
:10BAB000EC81DFF8E0A1A7F5FA7700242EE0A8FBDF
:10BAC00004346A68DBF80810240C2403891A8C42B9
:10BAD00028BF0C46002C00F0B580DBF8041022F0E3
